:0500030012036B80FEFA
:0303B900012B0114
:10014E00EF6003752B01E52B603230B10930B0063C
:10015E0030B20320B3267F0A7E007D007C0012039E
:10016E000FE4F52B20B1037F012220B0037F022282
:10017E0020B2037F032220B3127F042230B10C3051
:0D018E00B00930B20630B303752B017F00BD
:01019B002241
:06039600C2A58F80D2A772
:08039C007F027EEFDEFEDFFCB4
:0103A4002236
:0A03A500C2A6120396C2A702039C31
:10032F00CFCDCFCECCCE12004D7C007D0A12004D2A
:04033F00ED2430FF7A
:0A034300D2A6120396C2A702039C83
:10034D00AE07EEFB7A0064017004ED148009EB64D6
:0E035D00024A7009ED243F4480FF1203A522DE
:100382007F381203A57F0C1203A57F061203A57FF7
:04039200010203A5BC
:0A03AF00AC0312034DAF0402034338
:0602EC008B268A278928F9
:1002F20012034DE4FDAB26AA27A9288D827583003F
:0C03020012000EFF60061203430D80E99C
:01030E0022CC
:0A026E00EF24FFFDEE34FFFC7F0AD1
:080278008E1E8F1F8C208D21CA
:100280007F017E00E4FBEBC39521E5206480F874D8
:0E0290008098500AAC1EAD1F12003B0B80E898
:01029E00223D
:0402C8008A118B12FA
:1002CC0012034DAA13EAFF7E00D39400748094802D
:0F02DC00400D12026EAC11AD1212032F1A80E604
:0102EB0022F0
:0401E7008B828A83FA
:1001EB0012034DC3E58364809480400D7F2B120373
:1001FB004385830D85820E80107F2D120343C3E44C
:10020B009582F50EE49583F50DAA0CEAFF7E00D3DB
:10021B00940074809480400D12026EAC0DAD0E12E2
:05022B00032F1A80E61C
:0102300022AB
:04019C008A168B171D
:1001A00012034DAA18EAD39400748094804037EA71
:1001B00024FFFDE434FFFC7F107E00120278AC16B1
:1001C000AD17CFCDCFCECCCE12004DEF540FFEC326
:1001D000940A74809480EE5004243080022437FF07
:0601E0001203431A80BF68
:0101E60022F6
:040231008A1B8B1C7D
:1002350012034DAA1DEAFF7E00D3940074809480BA
:100245004026EF24FFFDEE34FFFC7F02120278AC5E
:100255001BAD1CCFCDCFCECCCE12004DEF5401241B
:0802650030FF1203431A80CDA3
:01026D00226E
:08030F008F258E248D238C2222
:10031700782274FF1200A4EC4D4E4F600A7F027ED4
:07032700EFDEFEDFFC80E9C0
:01032E0022AC
:10036B005389F0438901C28DD28C758CFC758A1729
:07037B00D2AFD2A9C2B922E2
:03000B0002029F4F
:10029F00C0E0C0D0758CFC758A17052AE52A70025C
:1002AF000529C394E8E52994034009752900752AA7
:0902BF000063A0FFD0D0D0E032B2
:030000000200C239
:0C00C200787FE4F6D8FD75812B0201095F
:10000E00BB010CE58229F582E5833AF583E02250A7
:10001E0006E92582F8E622BBFE06E92582F8E222F1
:0D002E00E58229F582E5833AF583E493220B
:10003B00EF8DF0A4A8F0CF8CF0A428CE8DF0A42ED9
:02004B00FE2293
:10004D00BC000BBE0029EF8DF084FFADF022E4CC97
:10005D00F875F008EF2FFFEE33FEEC33FCEE9DEC60
:10006D00984005FCEE9DFE0FD5F0E9E4CEFD22EDA6
:10007D00F8F5F0EE8420D21CFEADF075F008EF2FF0
:10008D00FFED33FD4007985006D5F0F222C398FDE1
:05009D000FD5F0EA227E
:1000A2007401FF3395E0FEFDFC080808E6CF2FF649
:1000B20018E6CE3EF618E6CD3DF618E6CC3CF62222
:1000CE00020003E493A3F8E493A34003F68001F245
:1000DE0008DFF48029E493A3F85407240CC8C33333
:1000EE00C4540F4420C8834004F456800146F6DF02
:1000FE00E4800B01020408102040809003B9E47ED6
:10010E00019360BCA3FF543F30E509541FFEE493F6
:10011E00A360010ECF54C025E060A840B8E493A3BD
:10012E00FAE493A3F8E493A3C8C582C8CAC583CAE8
:10013E00F0A3C8C582C8CAC583CADFE9DEE780BEA0
:0103BC000040
:00000001FF
