:10002E001204891204A0E4FF1202168F0C7E00EF58
:10003E0064017029AD08FCED7003750A09ED6401C9
:10004E004C7003750A0DED64024C7003750A12EDC7
:10005E0064034C7003750A190508530803EF640214
:10006E004E70380509E50975F0058485F009AF096C
:10007E007E00EF7002F50BEF64014E7003750B1EE0
:10008E00EF64024E7003750B32EF64034E7003750E
:10009E000B4BEF64044E7003750B64E50C64037038
:1000AE0085E4FF120216EF64027003020034750A33
:1000BE0009C3E50A941574809480500F7FE87E037F
:1000CE007D007C0012000E050A80E6750A15D3E548
:1000DE000A940A7480948040C87FE87E037D007C79
:0800EE000012000E150A80E665
:03000300012D01CB
:10021600EF6003752D01E52D603230B10930B0066F
:1002260030B20320B3267F0A7E007D007C001200D8
:100236000EE4F52D20B1037F012220B0037F0222B8
:1002460020B2037F032220B3127F042230B10C3088
:0D025600B00930B20630B303752D017F00F2
:010263002278
:0604DF00C2A58F80D2A728
:0804E5007F027EEFDEFEDFFC6A
:0104ED0022EC
:0A001E00C2A61204DFC2A70204E527
:10044D00CFCDCFCECCCE1201357C007D0A12013539
:04045D00ED2430FF5B
:0A046100D2A61204DFC2A70204E5D0
:10046B00AE07EEFB7A0064017004ED148009EB64B7
:0E047B00024A7009ED243F4480FF12001E2249
:1004B7007F3812001E7F0C12001E7F0612001E7F5F
:0404C7000102001E10
:0A04EE00AC0312046BAF04020461BA
:06042A008B2A8A2B892CAD
:1004300012046BE4FDAB2AAA2BA92C8D82758300D4
:0C0440001200F6FF60061204610D80E956
:01044C00228D
:0A037B00EF24FFFDEE34FFFC7F0AC3
:080385008E268F278C288D299C
:10038D007F017E00E4FBEBC39529E5286480F874BA
:0E039D008098500AAC26AD271201230B80E891
:0103AB00222F
:040406008A198B1AAA
:10040A0012046BAA1BEAFF7E00D3940074809480C6
:0F041A00400D12037BAC19AD1A12044D1A80E687
:0104290022B0
:0402AF008B828A8331
:1002B30012046BC3E58364809480400D7F2B12048A
:1002C3006185831585821680107F2D120461C3E436
:1002D3009582F516E49583F515AA14EAFF7E00D3FB
:1002E300940074809480400D12037BAC15AD1612FC
:0502F300044D1A80E635
:0102F80022E3
:040264008A1E8B1F44
:1002680012046BAA20EAD39400748094804037EA81
:1002780024FFFDE434FFFC7F107E00120385AC1ED2
:10028800AD1FCFCDCFCECCCE120135EF540FFEC36C
:10029800940A74809480EE5004243080022437FF3E
:0602A8001204611A80BF80
:0102AE00222D
:04033E008A238B245F
:1003420012046BAA25EAFF7E00D394007480948085
:100352004026EF24FFFDEE34FFFC7F02120385AC42
:1003620023AD24CFCDCFCECCCE120135EF54012414
:0803720030FF1204611A80CD76
:01037A002260
:100489005389F0438901C28DD28C758CFF758AA47A
:07049900D2AFD2A9D2B922B3
:1004A00053890F438910C28FD28E758DFF758BA42F
:0704B000D2AFD2ABC2BB22A8
:1004CB00E4F5C9F5C875CCF775CDFF75CAF775CBD3
:0404DB00FFD2CA2260
:03000B000203AC41
:1003AC00C0E0C0F0C0D0758CFF758AA4050DE50DBA
:1003BC0075F0C88485F00DE50DC3950A5006C2A0F2
:0F03CC00D2808004D2A0C280D0D0D0F0D0E03256
:03001B000203DB02
:1003DB00C0E0C0F0C0D0758DFF758BA4050EE50E87
:1003EB0075F0648485F00EE50EC3950B5004D29026
:0B03FB008002C290D0D0D0F0D0E032E1
:03002B000202F9D5
:1002F900C0E0C0F0C083C082C0D075D000C000C0CB
:1003090001C002C003C004C005C006C00775CCF710
:1003190075CDFF7F011202168F0CD007D006D005CC
:10032900D004D003D002D001D000D0D0D082D08365
:05033900D0F0D0E0321D
:0B000E00007E027DC7DDFEDEFCDFF59A
:0100190022C4
:0300000002018A70
:0C018A00787FE4F6D8FD75812D0201D1CC
:1000F600BB010CE58229F582E5833AF583E02250BF
:1001060006E92582F8E622BBFE06E92582F8E22208
:0D011600E58229F582E5833AF583E4932222
:10012300EF8DF0A4A8F0CF8CF0A428CE8DF0A42EF0
:02013300FE22AA
:10013500BC000BBE0029EF8DF084FFADF022E4CCAE
:10014500F875F008EF2FFFEE33FEEC33FCEE9DEC77
:10015500984005FCEE9DFE0FD5F0E9E4CEFD22EDBD
:10016500F8F5F0EE8420D21CFEADF075F008EF2F07
:10017500FFED33FD4007985006D5F0F222C398FDF8
:050185000FD5F0EA2295
:1001960002002EE493A3F8E493A34003F68001F251
:1001A60008DFF48029E493A3F85407240CC8C3336A
:1001B600C4540F4420C8834004F456800146F6DF39
:1001C600E4800B0102040810204080900003E47EC6
:1001D600019360BCA3FF543F30E509541FFEE4932E
:1001E600A360010ECF54C025E060A840B8E493A3F5
:1001F600FAE493A3F8E493A3C8C582C8CAC583CA20
:10020600F0A3C8C582C8CAC583CADFE9DEE780BED7
:0100060000F9
:00000001FF
