:0F04D70054656D3A0048756D3A00A1E3002500A9
:100003001204C37BFF7A0479D77D017F0112044474
:100013007BFF7A0479DC7D097F0112044412020418
:100023007F647E007D007C00120467E5137004E5A5
:100033000960EA12020485131985091B85141A85C0
:100043000A1CE51BFB7A007521027D017F02120465
:10005300207B2E7D037F021204FFE51CFB7A0075D3
:1000630021027D047F021204207BFF7A0479E17D63
:10007300057F021204447B437D067F021204FFE5E1
:1000830019FB7A007521027D097F021204207B2E61
:100093007D0B7F021204FFE51AFB7A007521027DB6
:1000A3000C7F021204207BFF7A0479E47D0B7F022C
:1000B3001204447F647E007D007C0012046702000A
:0100C3003606
:03050900013701B6
:1002CF00EF6003753701E537603230B10930B006A2
:1002DF0030B20320B3267F0A7E007D007C0012041B
:1002EF0067E4F53720B1037F012220B0037F02229C
:1002FF0020B2037F032220B3127F042230B10C30CF
:0D030F00B00930B20630B3037537017F002E
:01031C0022BE
:080467008F208E1F8D1E8C1DDD
:10046F00781D74FF12015AEC4D4E4F600A7F027EC9
:07047F00EFDEFEDFFC80E967
:010486002253
:05051000007F02DFFE88
:0105150022C3
:0604E600C2A58F80D2A721
:0804EC007F027EEFDEFEDFFC63
:0104F40022E5
:0A04F500C2A61204E6C2A70204EC3E
:10048700CFCDCFCECCCE1201037C007D0A12010363
:04049700ED2430FF21
:0A049B00D2A61204E6C2A70204EC88
:1004A500AE07EEFB7A0064017004ED148009EB647D
:0E04B500024A7009ED243F4480FF1204F52234
:1004C3007F381204F57F0C1204F57F061204F57FC2
:0404D300010204F529
:0A04FF00AC031204A5AF0402049B35
:060444008B1D8A1E891FBA
:10044A001204A5E4FDAB1DAA1EA91F8D82758300A7
:0C045A001200C4FF600612049B0D80E934
:010466002273
:0A03EF00EF24FFFDEE34FFFC7F0A4F
:0803F9008E228F238C248D2538
:100401007F017E00E4FBEBC39525E5246480F8744D
:0E0411008098500AAC22AD231200F10B80E857
:01041F0022BA
:040420008A1F8B2084
:100424001204A5AA21EAFF7E00D39400748094806C
:0F043400400D1203EFAC1FAD201204871A80E6B3
:010443002296
:040368008B828A8377
:10036C001204A5C3E58364809480400D7F2B120496
:10037C009B85832B85822C80107F2D12049BC3E4DC
:10038C009582F52CE49583F52BAA2AEAFF7E00D3FF
:10039C00940074809480400D1203EFAC2BAD2C12A2
:0503AC0004871A80E641
:0103B1002229
:04031D008A2F8B3068
:100321001204A5AA31EAD39400748094804037EA7C
:1003310024FFFDE434FFFC7F107E001203F9AC2F93
:10034100AD30CFCDCFCECCCE120103EF540FFEC3D3
:10035100940A74809480EE5004243080022437FF84
:0603610012049B1A80BF8C
:010367002273
:0403B2008A348B35C9
:1003B6001204A5AA36EAFF7E00D3940074809480C6
:1003C6004026EF24FFFDEE34FFFC7F021203F9AC5A
:1003D60034AD35CFCDCFCECCCE120103EF540124B0
:0803E60030FF12049B1A80CDC8
:0103EE0022EC
:03050C00010800E3
:10028000E4F51DC3E51D9408748094805040750DFD
:1002900002209307AF0D050DEF70F6120510120541
:1002A00010120510E4F512309303751201750D025A
:1002B000309307AF0D050DEF70F6E50D6401600E8C
:0E02C000E51825E0F518E5124218051D80B579
:0102CE00220D
:10020400C2937F127E007D007C00120467D2931299
:100214000510120510120510120510D293209359DF
:10022400750D02209307AF0D050DEF70F6750D02E5
:10023400309307AF0D050DEF70F612028085181587
:1002440012028085181612028085180B120280850E
:10025400180C120280851811D293E50B250C251574
:100264002516F512B5110F851513851614850B097E
:0C027400850C0A85110F7F01227F0022FB
:0300000002017882
:0C017800787FE4F6D8FD7581370201BFE6
:1000C400BB010CE58229F582E5833AF583E02250F1
:1000D40006E92582F8E622BBFE06E92582F8E2223B
:0D00E400E58229F582E5833AF583E4932255
:1000F100EF8DF0A4A8F0CF8CF0A428CE8DF0A42E23
:02010100FE22DC
:10010300BC000BBE0029EF8DF084FFADF022E4CCE0
:10011300F875F008EF2FFFEE33FEEC33FCEE9DECA9
:10012300984005FCEE9DFE0FD5F0E9E4CEFD22EDEF
:10013300F8F5F0EE8420D21CFEADF075F008EF2F39
:10014300FFED33FD4007985006D5F0F222C398FD2A
:050153000FD5F0EA22C7
:100158007401FF3395E0FEFDFC080808E6CF2FF692
:1001680018E6CE3EF618E6CD3DF618E6CC3CF6226B
:10018400020003E493A3F8E493A34003F68001F28E
:1001940008DFF48029E493A3F85407240CC8C3337C
:1001A400C4540F4420C8834004F456800146F6DF4B
:1001B400E4800B0102040810204080900509E47ECD
:1001C400019360BCA3FF543F30E509541FFEE49340
:1001D400A360010ECF54C025E060A840B8E493A307
:1001E400FAE493A3F8E493A3C8C582C8CAC583CA32
:1001F400F0A3C8C582C8CAC583CADFE9DEE780BEEA
:01050F0000EB
:00000001FF
