:06047E0048656C6C6F0084
:0300030001249C39
:100248001204157BFF7A04797E7D017F01120384F5
:100258007D067C007F011203E37F051204447F01C1
:100268001202E08F24EFFB7A00750C037D017F02F8
:0502780012036080FE8E
:03000600012501D0
:1001C300EF6003752501E525602C30B10930B006D9
:1001D30030B20320B3207F0A120444E4F52520B192
:1001E300037F012220B0037F022220B2037F032278
:1001F30020B3127F042230B10C30B00930B2063084
:07020300B3037525017F0024
:01020A0022D1
:06042900C2A58F80D2A7DE
:08042F007F027EEFDEFEDFFC20
:0104370022A2
:0A045000C2A6120429C2A702042F5D
:1003A700CFCDCFCECCCE12004D7C007D0A12004DB2
:0403B700ED2430FF02
:0A03BB00D2A6120429C2A702042FE3
:1003C500AE07EEFB7A0064017004ED148009EB645E
:0E03D500024A7009ED243F4480FF12045022BA
:100415007F381204507F0C1204507F061204507F5F
:04042500010204507C
:0A045A00AC031203C5AF040203BB9C
:060384008B088A09890ABA
:10038A001203C5E4FDAB08AA09A90A8D8275830088
:0C039A0012000EFF60061203BB0D80E98C
:0103A6002234
:0A02AF00EF24FFFDEE34FFFC7F0A90
:0802B9008E0D8F0E8C0F8D10CD
:1002C1007F017E00E4FBEBC39510E50F6480F874B9
:0E02D1008098500AAC0DAD0E12003B0B80E879
:0102DF0022FC
:040360008A0A8B0B6F
:100364001203C5AA0CEAFF7E00D394007480948023
:0F037400400D1202AFAC0AAD0B1203A71A80E6C0
:010383002257
:040179008B828A8368
:10017D001203C5C3E58364809480400D7F2B120369
:10018D00BB85831685821780107F2D1203BBC3E4B8
:10019D009582F517E49583F516AA15EAFF7E00D32F
:1001AD00940074809480400D1202AFAC16AD1712FE
:0501BD0003A71A80E613
:0101C200221A
:04012E008A1A8B1B83
:100132001203C5AA1CEAD39400748094804037EA63
:1001420024FFFDE434FFFC7F107E001202B9AC1ADA
:10015200AD1BCFCDCFCECCCE12004DEF540FFEC390
:10016200940A74809480EE5004243080022437FF75
:060172001203BB1A80BF5E
:010178002264
:04020B008A1F8B209B
:10020F001203C5AA21EAFF7E00D394007480948064
:10021F004026EF24FFFDEE34FFFC7F021202B9AC43
:10022F001FAD20CFCDCFCECCCE12004DEF54012439
:08023F0030FF1203BB1A80CD51
:010247002294
:1003FE005389F0438901C28DD28C758CFC758A1796
:07040E00D2AFD2A9C2B9224E
:03000B00020310DD
:10031000C0E0C0D0758CFC758A170523E5237002F8
:100320000522C394E8E52294034009752200752351
:090330000063A0FFD0D0D0E03240
:09046E00D2A0D2A1C2A0C2A122B9
:07047700C2A0D2A1D2A02215
:02027D00AD07CB
:10027F00E4FBEBC394087480948050237E00748059
:10028F00A803088006CEA2E713CE13D8F8FFEDF52A
:0F029F0082EF558224FF92A0D2A1C2A10B80D37F
:0102AE00222D
:10033900E4FFD2A0FEEEC39408748094805017D2D3
:10034900A130A00DA8067480088002C313D8FC420E
:0603590007C2A10E80DFC7
:01035F00227B
:0A046400EF24FF92A0D2A1C2A12252
:0B043800D2A0D2A1A2A0E433FFC2A119
:010443002296
:1003E3008F088C098D0A12046E7FA012027DAF085C
:0B03F30012027DAF0A12027D020477A7
:0202E0008F0885
:1002E20012046E7FA012027D120438AF0812027D42
:1002F20012043812046E7FA112027D120438120316
:0D030200398F097F01120464120477AF09DE
:01030F0022CB
:0B044400007E027DC7DDFEDEFCDFF560
:01044F00228A
:030000000200A259
:0C00A200787FE4F6D8FD7581250200E9A6
:10000E00BB010CE58229F582E5833AF583E02250A7
:10001E0006E92582F8E622BBFE06E92582F8E222F1
:0D002E00E58229F582E5833AF583E493220B
:10003B00EF8DF0A4A8F0CF8CF0A428CE8DF0A42ED9
:02004B00FE2293
:10004D00BC000BBE0029EF8DF084FFADF022E4CC97
:10005D00F875F008EF2FFFEE33FEEC33FCEE9DEC60
:10006D00984005FCEE9DFE0FD5F0E9E4CEFD22EDA6
:10007D00F8F5F0EE8420D21CFEADF075F008EF2FF0
:10008D00FFED33FD4007985006D5F0F222C398FDE1
:05009D000FD5F0EA227E
:1000AE00020248E493A3F8E493A34003F68001F21E
:1000BE0008DFF48029E493A3F85407240CC8C33353
:1000CE00C4540F4420C8834004F456800146F6DF22
:1000DE00E4800B0102040810204080900003E47EAF
:1000EE00019360BCA3FF543F30E509541FFEE49317
:1000FE00A360010ECF54C025E060A840B8E493A3DE
:10010E00FAE493A3F8E493A3C8C582C8CAC583CA08
:10011E00F0A3C8C582C8CAC583CADFE9DEE780BEC0
:0100090000F6
:00000001FF
