:1001E7001203BBE4FF12014E8F1FEF640170F40589
:1001F7001EE51E75F0058485F01EAF1E7E00EF70AC
:1002070003752005EF64014E700375200AEF640241
:100217004E700375200FEF64034E7003752014EFC3
:0A02270064044E70BE75201980B902
:03000300012D01CB
:10014E00EF6003752D01E52D603230B10930B00638
:10015E0030B20320B3267F0A7E007D007C0012039E
:10016E005FE4F52D20B1037F012220B0037F022230
:10017E0020B2037F032220B3127F042230B10C3051
:0D018E00B00930B20630B303752D017F00BB
:01019B002241
:0603E600C2A58F80D2A722
:0803EC007F027EEFDEFEDFFC64
:0103F40022E6
:0A03F500C2A61203E6C2A70203EC41
:10037F00CFCDCFCECCCE12004D7C007D0A12004DDA
:04038F00ED2430FF2A
:0A039300D2A61203E6C2A70203EC93
:10039D00AE07EEFB7A0064017004ED148009EB6486
:0E03AD00024A7009ED243F4480FF1203F5223E
:1003D2007F381203F57F0C1203F57F061203F57FB7
:0403E200010203F51C
:0A03FF00AC0312039DAF0402039348
:06033C008B2A8A2B892C9C
:1003420012039DE4FDAB2AAA2BA92C8D8275830092
:0C03520012000EFF60061203930D80E9FC
:01035E00227C
:0A02B800EF24FFFDEE34FFFC7F0A87
:0802C2008E228F238C248D2570
:1002CA007F017E00E4FBEBC39525E5246480F87486
:0E02DA008098500AAC22AD2312003B0B80E846
:0102E80022F3
:040318008A118B12A9
:10031C0012039DAA13EAFF7E00D39400748094808C
:0F032C00400D1202B8AC11AD1212037F1A80E619
:01033B00229F
:040231008B828A83AF
:1002350012039DC3E58364809480400D7F2B1203D8
:100245009385830D85820E80107F2D120393C3E461
:100255009582F50EE49583F50DAA0CEAFF7E00D391
:10026500940074809480400D1202B8AC0DAD0E124E
:05027500037F1A80E682
:01027A002261
:04019C008A168B171D
:1001A00012039DAA18EAD39400748094804037EA21
:1001B00024FFFDE434FFFC7F107E001202C2AC1667
:1001C000AD17CFCDCFCECCCE12004DEF540FFEC326
:1001D000940A74809480EE5004243080022437FF07
:0601E0001203931A80BF18
:0101E60022F6
:04027B008A1B8B1C33
:10027F0012039DAA1DEAFF7E00D394007480948020
:10028F004026EF24FFFDEE34FFFC7F021202C2ACCA
:10029F001BAD1CCFCDCFCECCCE12004DEF540124D1
:0802AF0030FF1203931A80CD09
:0102B7002224
:08035F008F298E288D278C26C2
:10036700782674FF1200A4EC4D4E4F600A7F027E80
:07037700EFDEFEDFFC80E970
:01037E00225C
:1003BB005389F0438901C28DD28C758CFF758AA449
:0703CB00D2AFD2A9C2B92292
:03000B000202E905
:1002E900C0E0C0F0C0D0758CFF758AA40521E52156
:1002F90075F0C88485F021E521C395205006C2A078
:0F030900D2908004D2A0C290D0D0D0F0D0E032F9
:030000000200C239
:0C00C200787FE4F6D8FD75812D0201095D
:10000E00BB010CE58229F582E5833AF583E02250A7
:10001E0006E92582F8E622BBFE06E92582F8E222F1
:0D002E00E58229F582E5833AF583E493220B
:10003B00EF8DF0A4A8F0CF8CF0A428CE8DF0A42ED9
:02004B00FE2293
:10004D00BC000BBE0029EF8DF084FFADF022E4CC97
:10005D00F875F008EF2FFFEE33FEEC33FCEE9DEC60
:10006D00984005FCEE9DFE0FD5F0E9E4CEFD22EDA6
:10007D00F8F5F0EE8420D21CFEADF075F008EF2FF0
:10008D00FFED33FD4007985006D5F0F222C398FDE1
:05009D000FD5F0EA227E
:1000A2007401FF3395E0FEFDFC080808E6CF2FF649
:1000B20018E6CE3EF618E6CD3DF618E6CC3CF62222
:1000CE000201E7E493A3F8E493A34003F68001F260
:1000DE0008DFF48029E493A3F85407240CC8C33333
:1000EE00C4540F4420C8834004F456800146F6DF02
:1000FE00E4800B0102040810204080900003E47E8F
:10010E00019360BCA3FF543F30E509541FFEE493F6
:10011E00A360010ECF54C025E060A840B8E493A3BD
:10012E00FAE493A3F8E493A3C8C582C8CAC583CAE8
:10013E00F0A3C8C582C8CAC583CADFE9DEE780BEA0
:0100060000F9
:00000001FF
