:10042A0054494D453A002020202020202020202019
:10043A0020005365743A5365636F6E6420005365F8
:10044A00743A4D696E7574652020005365743A4894
:07045A006F757220202000E5
:0C056100012200012300012500012400FC
:1002B40012054D7BFF7A04792A7D017F011204B671
:1002C4007B3A7D037F0212058A7B3A7D067F021208
:1002D400058A120534E5247003120143E524640100
:1002E40070031201ACE52464027003120204E524D5
:1002F4006403700312025C7BFF7A0479307D067F0D
:06030400011204B680CCDA
:1005340020B1157F0A7E007D007C001204D930B101
:09054400FDE524045403F5242212
:10014300D3E522943B748094804005E4F522052393
:10015300D3E523943B748094804005E4F52305257F
:10016300D3E5259417748094804003E4F525E525B1
:10017300FB7A00750C027D017F02120492E523FBDA
:100183007A00750C027D047F02120492AF220522CD
:10019300EFFB7A00750C027D077F021204927FD475
:0901A3007E037D007C000204D9FA
:1001AC007BFF7A04793C7D067F011204B620B01CDB
:1001BC00E5222401FFE433FE7C007D3C1200428DDD
:1001CC00227FC87E007D007C001204D920B216E587
:1001DC0022700575223B800215227FC87E007D00AF
:1001EC007C001204D9E522FB7A00750C027D077F96
:0801FC000212049220B1B622A8
:100204007BFF7A0479487D067F011204B620B01C76
:10021400E5232401FFE433FE7C007D3C1200428D83
:10022400237FC87E007D007C001204D920B216E52D
:1002340023700575233B800215237FC87E007D0053
:100244007C001204D9E523FB7A00750C027D047F3F
:080254000212049220B1B6224F
:10025C007BFF7A0479557D067F011204B620B01C11
:10026C00E5252401FFE433FE7C007D181200428D4D
:10027C00257FC87E007D007C001204D920B216E5D3
:10028C00257005752517800215257FC87E007D0019
:10029C007C001204D9E525FB7A00750C027D017FE8
:0802AC000212049220B1B622F7
:03056D0001260163
:10030A00EF6003752601E526603230B10930B00688
:10031A0030B20320B3267F0A7E007D007C001204DF
:10032A00D9E4F52620B1037F012220B0037F0222FF
:10033A0020B2037F032220B3127F042230B10C3093
:0D034A00B00930B20630B3037526017F0004
:010357002283
:0804D9008F0B8E0A8D098C08BF
:1004E100007F027EC7DEFEDFFC780874FF120099F0
:0604F100EC4D4E4F70EAD5
:0104F70022E2
:06057100C2A58F80D2A795
:080577007F027EEFDEFEDFFCD7
:01057F002259
:0A058000C2A6120571C2A70205779A
:1004F800CFCDCFCECCCE1200427C007D0A12004276
:04050800ED2430FFAF
:0A050C00D2A6120571C2A7020577FE
:10051600AE07EEFB7A0064017004ED148009EB640B
:0E052600024A7009ED243F4480FF1205802236
:10054D007F381205807F0C1205807F061205807F93
:04055D000102058012
:0A058A00AC03120516AF0402050CC5
:0604B6008B088A09890A87
:1004BC00120516E4FDAB08AA09A90A8D8275830002
:0C04CC00120003FF600612050C0D80E911
:0104D8002201
:0A046100EF24FFFDEE34FFFC7F0ADC
:08046B008E0D8F0E8C0F8D1019
:100473007F017E00E4FBEBC39510E50F6480F87405
:0E0483008098500AAC0DAD0E1200300B80E8D0
:010491002248
:040492008A0A8B0B3C
:10049600120516AA0CEAFF7E00D39400748094809D
:0F04A600400D120461AC0AAD0B1204F81A80E687
:0104B5002224
:0403A3008B828A833C
:1003A700120516C3E58364809480400D7F2B1205E8
:1003B7000C85831685821780107F2D12050CC3E4E8
:1003C7009582F517E49583F516AA15EAFF7E00D303
:1003D700940074809480400D120461AC16AD17121E
:0503E70004F81A80E695
:0103EC0022EE
:040358008A1A8B1B57
:10035C00120516AA1CEAD39400748094804037EAE4
:10036C0024FFFDE434FFFC7F107E0012046BAC1AFA
:10037C00AD1BCFCDCFCECCCE120042EF540FFEC36F
:10038C00940A74809480EE5004243080022437FF49
:06039C0012050C1A80BFDF
:0103A2002238
:0403ED008A1F8B20B8
:1003F100120516AA21EAFF7E00D39400748094802E
:100401004026EF24FFFDEE34FFFC7F0212046BACAB
:100411001FAD20CFCDCFCECCCE120042EF54012460
:0804210030FF12050C1A80CD1A
:0104290022B0
:030000000200B744
:0C00B700787FE4F6D8FD7581260200FE7B
:10000300BB010CE58229F582E5833AF583E02250B2
:1000130006E92582F8E622BBFE06E92582F8E222FC
:0D002300E58229F582E5833AF583E4932216
:10003000EF8DF0A4A8F0CF8CF0A428CE8DF0A42EE4
:02004000FE229E
:10004200BC000BBE0029EF8DF084FFADF022E4CCA2
:10005200F875F008EF2FFFEE33FEEC33FCEE9DEC6B
:10006200984005FCEE9DFE0FD5F0E9E4CEFD22EDB1
:10007200F8F5F0EE8420D21CFEADF075F008EF2FFB
:10008200FFED33FD4007985006D5F0F222C398FDEC
:050092000FD5F0EA2289
:100097007401FF3395E0FEFDFC080808E62FFFF624
:1000A70018E63EFEF618E63DFDF618E63CFCF6229D
:1000C3000202B4E493A3F8E493A34003F68001F29D
:1000D30008DFF48029E493A3F85407240CC8C3333E
:1000E300C4540F4420C8834004F456800146F6DF0D
:1000F300E4800B0102040810204080900561E47E37
:10010300019360BCA3FF543F30E509541FFEE49301
:10011300A360010ECF54C025E060A840B8E493A3C8
:10012300FAE493A3F8E493A3C8C582C8CAC583CAF3
:10013300F0A3C8C582C8CAC583CADFE9DEE780BEAB
:01057000008A
:00000001FF
