:06093B0048656C6C6F00C2
:10046D001208EF7FE81209081208B97BFF7A0979A3
:10047D003B7D017F011207E91208EF1207248F253A
:10048D008E248D238C22E4FFFEFDFCAB25AA24A92E
:10049D0023A8221201B4501E7B2D7D017F0212096B
:1004AD001EAF25AE24AD23AC2212022D8F258E2436
:1004BD008D238C2280097B2B7D017F0212091EAFBB
:1004CD0025AE24AD23AC2212027CAB07AA06750C17
:1004DD00037D027F021207C57B2E7D057F02120967
:1004ED001E7F007E407D1C7C46AB25AA24A923A837
:1004FD002212000E12027CE47B107A27F9F8120307
:0E050D00CD750C047D067F021207C502048521
:0309410001280189
:10063C00EF6003752801E528602C30B10930B00655
:10064C0030B20320B3207F0A120908E4F52820B148
:10065C00037F012220B0037F022220B2037F0322FA
:10066C0020B3127F042230B10C30B00930B2063006
:07067C00B3037528017F00A4
:010683002254
:0608E000C2A58F80D2A723
:0808E6007F027EEFDEFEDFFC65
:0108EE0022E7
:0A091400C2A61208E0C2A70208E61E
:10082E00CFCDCFCECCCE12033C7C007D0A12033C42
:04083E00ED2430FF76
:0A084200D2A61208E0C2A70208E6E1
:10084C00AE07EEFB7A0064017004ED148009EB64D2
:0E085C00024A7009ED243F4480FF1209142265
:1008B9007F381209147F0C1209147F061209147F5C
:0408C900010209140B
:0A091E00AC0312084CAF04020842BB
:0607E9008B088A09890A51
:1007EF0012084CE4FDAB08AA09A90A8D8275830093
:0C07FF001202FDFF60061208420D80E9A6
:01080B0022CA
:0A06F300EF24FFFDEE34FFFC7F0A48
:0806FD008E0D8F0E8C0F8D1085
:100705007F017E00E4FBEBC39510E50F6480F87470
:0E0715008098500AAC0DAD0E12032A0B80E83E
:0107230022B3
:0407C5008A0A8B0B06
:1007C90012084CAA0CEAFF7E00D39400748094802E
:0F07D900400D1206F3AC0AAD0B12082E1A80E683
:0107E80022EE
:0405F2008B828A83EB
:1005F60012084CC3E58364809480400D7F2B12085B
:100606004285831685821780107F2D120842C3E427
:100616009582F517E49583F516AA15EAFF7E00D3B1
:10062600940074809480400D1206F3AC16AD171238
:05063600082E1A80E609
:01063B00229C
:0405A7008A1A8B1B06
:1005AB0012084CAA1CEAD39400748094804037EA5A
:1005BB0024FFFDE434FFFC7F107E001206FDAC1A15
:1005CB00AD1BCFCDCFCECCCE12033CEF540FFEC321
:1005DB00940A74809480EE5004243080022437FFF8
:0605EB001208421A80BF55
:0105F10022E7
:040684008A1F8B201E
:1006880012084CAA21EAFF7E00D39400748094805B
:100698004026EF24FFFDEE34FFFC7F021206FDAC7E
:1006A8001FAD20CFCDCFCECCCE12033CEF540124CA
:0806B80030FF1208421A80CD48
:0106C0002217
:1008A2005389F0438901C28DD28C758CFC758A17ED
:0708B200D2AFD2A9C2B922A6
:03000B0002074F9A
:10074F00C0E0C0D0758CFC758A170527E5277002AD
:10075F000526C394E8E526940340097526007527FE
:09076F000063A0FFD0D0D0E032FD
:09093200D2A0D2A1C2A0C2A122F0
:07000300C2A0D2A1D2A0228D
:0206C100AD0783
:1006C300E4FBEBC394087480948050237E00748011
:1006D300A803088006CEA2E713CE13D8F8FFEDF5E2
:0F06E30082EF558224FF92A0D2A1C2A10B80D337
:0106F20022E5
:10077800E4FFD2A0FEEEC39408748094805017D290
:10078800A130A00DA8067480088002C313D8FC42CB
:0607980007C2A10E80DF84
:01079E002238
:0A092800EF24FF92A0D2A1C2A12289
:0B08FC00D2A0D2A1A2A0E433FFC2A151
:0109070022CD
:0B090800007E027DC7DDFEDEFCDFF597
:0109130022C1
:10086A00D2B7C2B7007FF7DFFED2B7007F1DDFFE27
:0C087A00A2B7E433FE007FF7DFFEAF06FC
:01088600224F
:1008CD00C2B77E04DEFEEF24FF92B7007E16DEFE79
:0208DD00D2B790
:0108DF0022F6
:10088700D2B7C2B77F02DFFED2B77F02DFFEA2B7C1
:0A089700E433FE007F16DFFEAF061B
:0108A1002234
:02080C00AD0736
:10080E00E4FCECC39408748094805013A804740123
:0F081E00088002C333D8FC5DFF1208CD0C80E3C5
:01082D0022A8
:10079F00E4FDFCECC3940874809480501612088713
:1007AF00EF600DA8047401088002C333D8FC420522
:0507BF000C80E0AF0515
:0107C4002212
:0D08EF0012086A7FCC12080C7F4402080C2E
:1007240012086A7FCC12080C7FBE12080C12079FB5
:100734008F0812079FEFFEE508FFFDAC06EC1202DE
:0B07440043E4FBFA79807841020117C2
:10000E00EC4D6011E8497017ED33EC3304600DE4EC
:10001E00FCFFFEFD22E933E8330470F80202E81219
:10002E0002B358046009E4CC24815006285009021A
:10003E0002F22840030202EFC0E0EB4A7044B9809E
:10004E0006D0E0FB0202DEEF4E701CBD8008EBFF17
:10005E00EAFEE9FD80EBE98DF0A4FEE5F00200F783
:10006E00E9CDF9EAFEEBFFEF89F0A4FCE5F0CE89CD
:10007E00F0A42EFFE435F0CD89F0A42DFEE435F08A
:10008E008067EF4E7005BD80D780C3EF8BF0A4ACB8
:10009E00F0EE8BF0A42CFCE435F0F8EF8AF0A42CF3
:1000AE00E5F038FCE433CB8DF0A42CFCE5F03BF806
:1000BE00EE8AF0A42CFCE5F038F8E433CF89F0A4F6
:1000CE002CFCE5F038CF3400CE89F0A42FFFE5F0FC
:1000DE003EFEE433C98DF0A42EFEE5F039CD8AF054
:1000EE00A42FFFE5F03EFEE43DFD33D0E0FB5007CC
:1000FE000BBB000F0202F2EC2CFCEF33FFEE33FED3
:06010E00ED33FD0202CA00
:100114000202F2EC5D046005E8590470030202E88F
:100124001202B3580460F6EC4860F2EC7004FDFE71
:10013400FF22C860DB2481C85009C39860025006BE
:100144000202EF9850CAF582E9294B4A7005AB8246
:100154000202DE75F0007C1A7880C3EF9BEE9AED04
:1001640099400DC3EF9BFFEE9AFEED99FDE842F036
:10017400DC23ACF0D0E0FFD0E0FED0E0FDAB822089
:10018400E7101BEB60BAEC2CFCEF33FFEE33FEED13
:1001940033FD0202CAE803F830E705C0F075F00049
:1001A400EF2FFFEE33FEED33FD40B830E7C280AAF7
:1001B40074F8CC6480CCC86480C8F58204604FC3F2
:1001C400EB9FF5F0EA9E42F0E99D42F0E89C45F091
:1001D400603C501DE5825FFFE582D313CB5BCBF41B
:1001E4002B5582FB50280ABA002409B90020088044
:1001F4001DE5825BFBE582D313CF5FCFF4C3132FDE
:100204005582FF50090EBE00050DBD00010CC3EB65
:100214009FF5F0EA9E42F0E99D42F0E89C45F060CB
:0902240007CC4820E701B3EC22ED
:10022D00ED33EC33600A047003BD8004ECB2E7FCDF
:01023D00229E
:10023E0075F020800E75F010800575F0087D007E3B
:10024E00007F003392D530D50312045FEC3340109B
:10025E00EF33FFEE33FEED33FDEC33FCD5F0ED2244
:0E026E00E5F0247EA2D513CC92E7CDCEFF2280
:10027C00EDD2E7CD33EC3392D524814006E4FFFE7A
:10028C00FDFC22FCE4CFCECDCC24E0501174FF80D9
:10029C00EDC3CC13CCCD13CDCE13CECF13CF047076
:0702AC00F030D5DE02045F13
:1002B300E9D2E7C933E833F892D5EDD2E7CD33EC91
:0702C30033FC5002B2D5220A
:1002CA00EC30E7100FBF000C0EBE00080DBD000495
:1002DA000BEB6014A2D5EB13FCED92E7FD2274FF41
:1002EA00FCFDFEFF22E480F8A2D574FF13FC7D809A
:0302FA00E480EFAE
:0300000002051BDB
:0C051B00787FE4F6D8FD758128020562A7
:1002FD00BB010CE58229F582E5833AF583E02250B6
:10030D0006E92582F8E622BBFE06E92582F8E222FF
:0D031D00E58229F582E5833AF583E4932219
:10032A00EF8DF0A4A8F0CF8CF0A428CE8DF0A42EE7
:02033A00FE22A1
:10033C00BC000BBE0029EF8DF084FFADF022E4CCA5
:10034C00F875F008EF2FFFEE33FEEC33FCEE9DEC6E
:10035C00984005FCEE9DFE0FD5F0E9E4CEFD22EDB4
:10036C00F8F5F0EE8420D21CFEADF075F008EF2FFE
:10037C00FFED33FD4007985006D5F0F222C398FDEF
:05038C000FD5F0EA228C
:1003910075F008758200EF2FFFEE33FECD33CDCC23
:1003A10033CCC58233C5829BED9AEC99E5829840A6
:1003B1000CF582EE9BFEED9AFDEC99FC0FD5F0D683
:1003C100E4CEFBE4CDFAE4CCF9A88222B800C1B9AD
:1003D1000059BA002DEC8BF084CFCECDFCE5F0CBEB
:1003E100F97818EF2FFFEE33FEED33FDEC33FCEB24
:1003F10033FB10D703994004EB99FB0FD8E5E4F9DF
:10040100FA227818EF2FFFEE33FEED33FDEC33FCCB
:10041100C933C910D7059BE99A4007EC9BFCE99ABF
:10042100F90FD8E0E4C9FAE4CCFB2275F010EF2F04
:10043100FFEE33FEED33FDCC33CCC833C810D70704
:100441009BEC9AE899400AED9BFDEC9AFCE899F83F
:0E0451000FD5F0DAE4CDFBE4CCFAE4C8F922D2
:0E045F00C3E49FFFE49EFEE49DFDE49CFC22AE
:1005270002046DE493A3F8E493A34003F68001F279
:1005370008DFF48029E493A3F85407240CC8C333D5
:10054700C4540F4420C8834004F456800146F6DFA4
:10055700E4800B0102040810204080900941E47EEA
:10056700019360BCA3FF543F30E509541FFEE49399
:10057700A360010ECF54C025E060A840B8E493A360
:10058700FAE493A3F8E493A3C8C582C8CAC583CA8B
:10059700F0A3C8C582C8CAC583CADFE9DEE780BE43
:0109440000B2
:00000001FF
