:06060B00543A00483A00D9
:100185001205C37FD07E077D007C001205687BFFCA
:100195007A06790B7D017F011205457BFF7A067989
:1001A5000E7D017F021205457FF47E017D007C00F6
:1001B50012056812048F1204FB8F081204FB8F09C5
:1001C5001204FB8F0A1204FB8F0B1204FB8F13E53D
:1001D50008F50FE509F510E50AF511E50BF512E54A
:1001E500082509250A250BF50CB513BCAE11AF1270
:1001F500E4FCFD7BFF7AFFF9F812040EEC4D4E4F3F
:1002050060047B2D80027B2B7D037F01120601E5B7
:1002150011547FF50D85120EFEAF0E7C007D0A127E
:100225000042AA06AB077520027D047F0112052155
:100235007B2E7D067F01120601AE0DAF0E7C007D83
:100245000A120042AA04AB057520017D077F011241
:1002550005217B437D087F01120601AE0FAF107C9F
:10026500007D0A120042AA06AB077520037D037FB5
:10027500021205217B2E7D067F021206017A00E51A
:1002850010540AFB7520017D077F021205217B258D
:0A0295007D087F021206010201AD90
:03061100013601AE
:10032B00EF6003753601E536603230B10930B00647
:10033B0030B20320B3267F0A7E007D007C001205BD
:10034B0068E4F53620B1037F012220B0037F02223F
:10035B0020B2037F032220B3127F042230B10C3072
:0D036B00B00930B20630B3037536017F00D3
:010378002262
:080568008F1F8E1E8D1D8C1CDF
:10057000007F027EC7DEFEDFFC781C74FF1200994C
:06058000EC4D4E4F70EA45
:010586002252
:0605E800C2A58F80D2A71E
:0805EE007F027EEFDEFEDFFC60
:0105F60022E2
:0A05F700C2A61205E8C2A70205EE35
:10058700CFCDCFCECCCE1200427C007D0A120042E6
:04059700ED2430FF20
:0A059B00D2A61205E8C2A70205EE81
:1005A500AE07EEFB7A0064017004ED148009EB647C
:0E05B500024A7009ED243F4480FF1205F72230
:1005C3007F381205F77F0C1205F77F061205F77FB8
:0405D300010205F725
:0A060100AC031205A5AF0402059B2F
:060545008B1C8A1D891EBB
:10054B001205A5E4FDAB1CAA1DA91E8D82758300A7
:0C055B00120003FF600612059B0D80E9F2
:010567002271
:0A04CA00EF24FFFDEE34FFFC7F0A73
:0804D4008E218F228C238D2460
:1004DC007F017E00E4FBEBC39524E5236480F87474
:0E04EC008098500AAC21AD221200300B80E83F
:0104FA0022DF
:040521008A1E8B1F84
:100525001205A5AA20EAFF7E00D39400748094806A
:0F053500400D1204CAAC1EAD1F1205871A80E6D6
:010544002294
:0403C4008B828A831B
:1003C8001205A5C3E58364809480400D7F2B120538
:1003D8009B85832A85822B80107F2D12059BC3E481
:1003E8009582F52BE49583F52AAA29EAFF7E00D3A6
:1003F800940074809480400D1204CAAC2AAD2B126C
:0504080005871A80E6E3
:01040D0022CC
:040379008A2E8B2F0E
:10037D001205A5AA30EAD39400748094804037EA20
:10038D0024FFFDE434FFFC7F107E001204D4AC2E5C
:10039D00AD2FCFCDCFCECCCE120042EF540FFEC33A
:1003AD00940A74809480EE5004243080022437FF28
:0603BD0012059B1A80BF2F
:0103C3002217
:040452008A338B342A
:100456001205A5AA35EAFF7E00D394007480948025
:100466004026EF24FFFDEE34FFFC7F021204D4ACDD
:1004760033AD34CFCDCFCECCCE120042EF540124D3
:0804860030FF12059B1A80CD26
:01048E00224B
:10048F00D293C2937F017E007D007C00120568D25B
:10049F00937F09DFFE7F12DFFEA293E433FE007F1E
:1004AF0024DFFEA293E433FD7F12DFFED293EE70C2
:0A04BF00047F0180027F00EF5DFF63
:0104C9002210
:1005D7002093FD3093FD007F0DDFFEA293E433FFF0
:0105E70022F1
:1004FB00E4FEFDEDC394087480948050161205D76A
:10050B00EF600DA8057480088002C313D8FC420667
:05051B000D80E0AF06B9
:0105200022B8
:0300000002029F5A
:0C029F00787FE4F6D8FD7581360202E697
:10000300BB010CE58229F582E5833AF583E02250B2
:1000130006E92582F8E622BBFE06E92582F8E222FC
:0D002300E58229F582E5833AF583E4932216
:10003000EF8DF0A4A8F0CF8CF0A428CE8DF0A42EE4
:02004000FE229E
:10004200BC000BBE0029EF8DF084FFADF022E4CCA2
:10005200F875F008EF2FFFEE33FEEC33FCEE9DEC6B
:10006200984005FCEE9DFE0FD5F0E9E4CEFD22EDB1
:10007200F8F5F0EE8420D21CFEADF075F008EF2FFB
:10008200FFED33FD4007985006D5F0F222C398FDEC
:050092000FD5F0EA2289
:10040E00C2D5E830E70FB2D5E4C39BFBE49AFAE419
:10041E0099F9E498F8EC30E717B2D51204441200BB
:10042E00F3E4C39BFBE49AFAE499F9E498F88003A9
:10043E001200F330D50DE4C39FFFE49EFEE49DFD54
:04044E00E49CFC220C
:100097007401FF3395E0FEFDFC080808E62FFFF624
:1000A70018E63EFEF618E63DFDF618E63CFCF6229D
:1002AB00020185E493A3F8E493A34003F68001F2E3
:1002BB0008DFF48029E493A3F85407240CC8C33354
:1002CB00C4540F4420C8834004F456800146F6DF23
:1002DB00E4800B0102040810204080900611E47E9C
:1002EB00019360BCA3FF543F30E509541FFEE49318
:1002FB00A360010ECF54C025E060A840B8E493A3DF
:10030B00FAE493A3F8E493A3C8C582C8CAC583CA09
:10031B00F0A3C8C582C8CAC583CADFE9DEE780BEC1
:0106140000E5
:1000B70075F008758200EF2FFFEE33FECD33CDCC00
:1000C70033CCC58233C5829BED9AEC99E582984083
:1000D7000CF582EE9BFEED9AFDEC99FC0FD5F0D660
:1000E700E4CEFBE4CDFAE4CCF9A88222B800C1B98A
:1000F7000059BA002DEC8BF084CFCECDFCE5F0CBC8
:10010700F97818EF2FFFEE33FEED33FDEC33FCEB00
:1001170033FB10D703994004EB99FB0FD8E5E4F9BB
:10012700FA227818EF2FFFEE33FEED33FDEC33FCA8
:10013700C933C910D7059BE99A4007EC9BFCE99A9C
:10014700F90FD8E0E4C9FAE4CCFB2275F010EF2FE1
:10015700FFEE33FEED33FDCC33CCC833C810D707E1
:100167009BEC9AE899400AED9BFDEC9AFCE899F81C
:0E0177000FD5F0DAE4CDFBE4CCFAE4C8F922AF
:00000001FF
