:10018F0075984053890F438920758BFD758DFDC27E
:04019F00ABD28E222F
:080003008F993099FDC299228A
:1001110012018FAF0E050E12000375A0F07FF47E61
:10012100017D007C0012015975A00F7FF47E017DD5
:08013100007C0012015980DB83
:080159008F0B8E0A8D098C0842
:10016100007F027EC7DEFEDFFC780874FF12013BD0
:06017100EC4D4E4F70EA58
:010177002265
:0301A300010F0148
:10009A00EF6003750F01E50F603230B10930B00629
:1000AA0030B20320B3267F0A7E007D007C00120155
:1000BA0059E4F50F20B1037F012220B0037F022209
:1000CA0020B2037F032220B3127F042230B10C3006
:0D00DA00B00930B20630B303750F017F008E
:0100E70022F6
:1001780053890F438920C28DD28C758CFC758A17E0
:07018800D2AFD2A9C2B922D7
:03000B000200E808
:1000E800C0E0C0D0758CFC758A17050DE50D70024F
:1000F800050CC394E8E50C94034009750C00750DD4
:090108000063A0FFD0D0D0E0326A
:0300000002000EED
:0C000E00787FE4F6D8FD75810F020055E4
:100139007401FF3395E0FEFDFC080808E62FFFF681
:1001490018E63EFEF618E63DFDF618E63CFCF622FA
:10001A00020111E493A3F8E493A34003F68001F2EA
:10002A0008DFF48029E493A3F85407240CC8C333E7
:10003A00C4540F4420C8834004F456800146F6DFB6
:10004A00E4800B01020408102040809001A3E47EA2
:10005A00019360BCA3FF543F30E509541FFEE493AB
:10006A00A360010ECF54C025E060A840B8E493A372
:10007A00FAE493A3F8E493A3C8C582C8CAC583CA9D
:10008A00F0A3C8C582C8CAC583CADFE9DEE780BE55
:0101A6000058
:00000001FF
