:100231001203BAE4FF12014E8F1FEF640170F4053F
:100241001EE51E75F0058485F01EAF1E7E00EF7061
:1002510002F520EF64014E7003752019EF64024E20
:100261007003752032EF64034E700375204BEF6409
:09027100034E70BF75206480BAD1
:03000300012D01CB
:10014E00EF6003752D01E52D603230B10930B00638
:10015E0030B20320B3267F0A7E007D007C0012039E
:10016E005EE4F52D20B1037F012220B0037F022231
:10017E0020B2037F032220B3127F042230B10C3051
:0D018E00B00930B20630B303752D017F00BB
:01019B002241
:0603E500C2A58F80D2A723
:0803EB007F027EEFDEFEDFFC65
:0103F30022E7
:0A03F400C2A61203E5C2A70203EB44
:10037E00CFCDCFCECCCE12004D7C007D0A12004DDB
:04038E00ED2430FF2B
:0A039200D2A61203E5C2A70203EB96
:10039C00AE07EEFB7A0064017004ED148009EB6487
:0E03AC00024A7009ED243F4480FF1203F42240
:1003D1007F381203F47F0C1203F47F061203F47FBB
:0403E100010203F41E
:0A03FE00AC0312039CAF040203924B
:06033B008B2A8A2B892C9D
:1003410012039CE4FDAB2AAA2BA92C8D8275830094
:0C03510012000EFF60061203920D80E9FE
:01035D00227D
:0A02B700EF24FFFDEE34FFFC7F0A88
:0802C1008E228F238C248D2571
:1002C9007F017E00E4FBEBC39525E5246480F87487
:0E02D9008098500AAC22AD2312003B0B80E847
:0102E70022F4
:040317008A118B12AA
:10031B0012039CAA13EAFF7E00D39400748094808E
:0F032B00400D1202B7AC11AD1212037E1A80E61C
:01033A0022A0
:0401E7008B828A83FA
:1001EB0012039CC3E58364809480400D7F2B120324
:1001FB009285830D85820E80107F2D120392C3E4AE
:10020B009582F50EE49583F50DAA0CEAFF7E00D3DB
:10021B00940074809480400D1202B7AC0DAD0E1299
:05022B00037E1A80E6CD
:0102300022AB
:04019C008A168B171D
:1001A00012039CAA18EAD39400748094804037EA22
:1001B00024FFFDE434FFFC7F107E001202C1AC1668
:1001C000AD17CFCDCFCECCCE12004DEF540FFEC326
:1001D000940A74809480EE5004243080022437FF07
:0601E0001203921A80BF19
:0101E60022F6
:04027A008A1B8B1C34
:10027E0012039CAA1DEAFF7E00D394007480948022
:10028E004026EF24FFFDEE34FFFC7F021202C1ACCC
:10029E001BAD1CCFCDCFCECCCE12004DEF540124D2
:0802AE0030FF1203921A80CD0B
:0102B6002225
:08035E008F298E288D278C26C3
:10036600782674FF1200A4EC4D4E4F600A7F027E81
:07037600EFDEFEDFFC80E971
:01037D00225D
:1003BA005389F0438901C28DD28C758CFF758AA44A
:0703CA00D2AFD2A9C2B92293
:03000B000202E806
:1002E800C0E0C0F0C0D0758CFF758AA40521E52157
:1002F80075F0648485F021E521C395205006C2A0DD
:0F030800D2908004D2A0C290D0D0D0F0D0E032FA
:030000000200C239
:0C00C200787FE4F6D8FD75812D0201095D
:10000E00BB010CE58229F582E5833AF583E02250A7
:10001E0006E92582F8E622BBFE06E92582F8E222F1
:0D002E00E58229F582E5833AF583E493220B
:10003B00EF8DF0A4A8F0CF8CF0A428CE8DF0A42ED9
:02004B00FE2293
:10004D00BC000BBE0029EF8DF084FFADF022E4CC97
:10005D00F875F008EF2FFFEE33FEEC33FCEE9DEC60
:10006D00984005FCEE9DFE0FD5F0E9E4CEFD22EDA6
:10007D00F8F5F0EE8420D21CFEADF075F008EF2FF0
:10008D00FFED33FD4007985006D5F0F222C398FDE1
:05009D000FD5F0EA227E
:1000A2007401FF3395E0FEFDFC080808E6CF2FF649
:1000B20018E6CE3EF618E6CD3DF618E6CC3CF62222
:1000CE00020231E493A3F8E493A34003F68001F215
:1000DE0008DFF48029E493A3F85407240CC8C33333
:1000EE00C4540F4420C8834004F456800146F6DF02
:1000FE00E4800B0102040810204080900003E47E8F
:10010E00019360BCA3FF543F30E509541FFEE493F6
:10011E00A360010ECF54C025E060A840B8E493A3BD
:10012E00FAE493A3F8E493A3C8C582C8CAC583CAE8
:10013E00F0A3C8C582C8CAC583CADFE9DEE780BEA0
:0100060000F9
:00000001FF
