:100A4F00543A0054483A00544C3A004F563A480032
:0A0A5F004F563A4C002020202000E2
:030AEB00010E00F9
:10046200E4FF1208A68F0D7F011208A68F08AF0DB8
:10047200EF3395E0FED3EF947DEE648094805017C5
:10048200AF08EF3395E0FEC3EF94C9EE6480947F2A
:100492004005E50DB50806750D1975080F120A69B4
:1004A2007BFF7A0A794F7D017F011209967BFF7AE1
:1004B2000A79527D017F021209967BFF7A0A7956E8
:1004C2007D097F02120996E50DFB3395E0FA751757
:1004D200037D047F02120774E508FB3395E0FA7589
:1004E20017037D0C7F02120774120A9F7FE8120A1B
:1004F200B87F011207BE8F0E120A9F1208D68F0C08
:100502008E0B8D0A8C09E4FFFEFDFCAB0CAA0BA935
:100512000AA8091201A9501E7B2D7D037F01120A30
:10052200CEAF0CAE0BAD0AAC091202228F128E11A5
:100532008D108C0F80157B2B7D037F01120ACE85D7
:100542000C12850B11850A1085090FAF12AE11AD81
:1005520010AC0F120271AB07AA067517037D047F58
:100562000112094E7B2E7D077F01120ACE7F007E8B
:10057200407D1C7C46AB12AA11A910A80F120003E1
:10058200120271E47B107A27F9F81203C27517047C
:100592007D087F0112094EE50E700302064DFF7EB3
:1005A2000064017017050DAD0DED3395E0FCD3ED40
:1005B200947DEC648094804003750D7DEF64024E5F
:1005C2007011150DD3E5086480F8E50D648098502C
:1005D20002050DE50E640370110508C3E50D648084
:1005E200F8E50864809840021508E50E6404701767
:1005F2001508AF08EF3395E0FEC3EF94C9EE6480AF
:10060200947F50037508C9E50DFB3395E0FA751721
:10061200037D047F02120774E508FB3395E0FA7547
:1006220017037D0C7F02120774E50DFD3395E0FC84
:10063200E4FF1209727F05120AB8E508FD3395E05E
:10064200FC7F011209727F05120AB8AC0DEC12028E
:100652003DAB0CAA0BA90AA8091201A9600A40081D
:100662007BFF7A0A795A8019AC08EC12023DAB0C76
:10067200AA0BA90AA8091201A950107BFF7A0A79CC
:100682005F7D0D7F011209960204F37BFF7A0A79DE
:0B069200647D0D7F011209960204F345
:030AEE00012801DB
:1007BE00EF6003752801E528602C30B10930B006D2
:1007CE0030B20320B3207F0A120AB8E4F52820B114
:1007DE00037F012220B0037F022220B2037F032277
:1007EE0020B3127F042230B10C30B00930B2063083
:0707FE00B3037528017F0021
:0108050022D0
:060A9000C2A58F80D2A771
:080A96007F027EEFDEFEDFFCB3
:010A9E002235
:0A0AC400C2A6120A90C2A7020A9609
:1009DB00CFCDCFCECCCE1203317C007D0A120331AA
:0409EB00ED2430FFC8
:0A09EF00D2A6120A90C2A7020A96CF
:1009F900AE07EEFB7A0064017004ED148009EB6424
:0E0A0900024A7009ED243F4480FF120AC42205
:100A69007F38120AC47F0C120AC47F06120AC47F97
:040A790001020AC4A8
:0A0ACE00AC031209F9AF040209EFAE
:060996008B138A14891581
:10099C001209F9E4FDAB13AA14A9158D8275830015
:0C09AC001202F2FF60061209EF0D80E954
:0109B800221C
:0A087500EF24FFFDEE34FFFC7F0AC4
:08087F008E1A8F1B8C1C8D1DCD
:100887007F017E00E4FBEBC3951DE51C6480F874D3
:0E0897008098500AAC1AAD1B12031F0B80E8AC
:0108A5002230
:04094E008A158B1665
:100952001209F9AA17EAFF7E00D3940074809480EA
:0F096200400D120875AC15AD161209DB1A80E6B0
:010971002263
:040774008B828A8367
:100778001209F9C3E58364809480400D7F2B120928
:10078800EF85831885821980107F2D1209EFC3E445
:100798009582F519E49583F518AA17EAFF7E00D328
:1007A800940074809480400D120875AC18AD19122D
:0507B80009DB1A80E6D8
:0107BD002219
:040729008A208B2176
:10072D001209F9AA22EAD39400748094804037EA22
:10073D0024FFFDE434FFFC7F107E0012087FAC2007
:10074D00AD21CFCDCFCECCCE120331EF540FFEC3A2
:10075D00940A74809480EE5004243080022437FF74
:06076D001209EF1A80BF23
:010773002263
:040806008A258B268E
:10080A001209F9AA27EAFF7E00D394007480948023
:10081A004026EF24FFFDEE34FFFC7F0212087FAC76
:10082A0025AD26CFCDCFCECCCE120331EF54012445
:08083A0030FF1209EF1A80CD16
:010842002293
:090AE200D2A0D2A1C2A0C2A1223F
:070AF200C2A0D2A1D2A02294
:02084300AD07FF
:10084500E4FBEBC394087480948050237E0074808D
:10085500A803088006CEA2E713CE13D8F8FFEDF55E
:0F08650082EF558224FF92A0D2A1C2A10B80D3B3
:010874002261
:10090100E4FFD2A0FEEEC39408748094805017D205
:10091100A130A00DA8067480088002C313D8FC4240
:0609210007C2A10E80DFF9
:0109270022AD
:0A0AD800EF24FF92A0D2A1C2A122D8
:0B0AAC00D2A0D2A1A2A0E433FFC2A19F
:010AB700221C
:0B0AB800007E027DC7DDFEDEFCDFF5E6
:010AC3002210
:100A1700D2B7C2B7007FF7DFFED2B7007F1DDFFE78
:0C0A2700A2B7E433FE007FF7DFFEAF064D
:010A330022A0
:100A7D00C2B77E04DEFEEF24FF92B7007E16DEFEC7
:020A8D00D2B7DE
:010A8F002244
:100A3400D2B7C2B77F02DFFED2B77F02DFFEA2B712
:0A0A4400E433FE007F16DFFEAF066C
:010A4E002285
:0209B900AD0788
:1009BB00E4FCECC39408748094805013A804740175
:0F09CB00088002C333D8FC5DFF120A7D0C80E365
:0109DA0022FA
:10092800E4FDFCECC39408748094805016120A34D9
:10093800EF600DA8047401088002C333D8FC420597
:050948000C80E0AF058A
:01094D002287
:0D0A9F00120A177FCC1209B97F440209B971
:1008D600120A177FCC1209B97FBE1209B91209286C
:1008E6008F13120928EFFEE513FFFDAC06EC12028A
:0B08F60038E4FBFA7980784102010C25
:100972008F138C148D15120AE27FA0120843120AFB
:10098200ACAF13120843120AACAF15120843120A95
:04099200AC020AF2B7
:0208A6008F13AE
:1008A800120AE27FA0120843120AACAF13120843DF
:1008B800120AAC120AE27FA1120843120AAC12090A
:0D08C800018F147F01120AD8120AF2AF143A
:0108D5002200
:10000300EC4D6011E8497017ED33EC3304600DE4F7
:10001300FCFFFEFD22E933E8330470F80202DD122F
:1000230002A858046009E4CC248150062850090230
:1000330002E72840030202E4C0E0EB4A7044B980BF
:1000430006D0E0FB0202D3EF4E701CBD8008EBFF2D
:10005300EAFEE9FD80EBE98DF0A4FEE5F00200EC99
:10006300E9CDF9EAFEEBFFEF89F0A4FCE5F0CE89D8
:10007300F0A42EFFE435F0CD89F0A42DFEE435F095
:100083008067EF4E7005BD80D780C3EF8BF0A4ACC3
:10009300F0EE8BF0A42CFCE435F0F8EF8AF0A42CFE
:1000A300E5F038FCE433CB8DF0A42CFCE5F03BF811
:1000B300EE8AF0A42CFCE5F038F8E433CF89F0A401
:1000C3002CFCE5F038CF3400CE89F0A42FFFE5F007
:1000D3003EFEE433C98DF0A42EFEE5F039CD8AF05F
:1000E300A42FFFE5F03EFEE43DFD33D0E0FB5007D7
:1000F3000BBB000F0202E7EC2CFCEF33FFEE33FEE9
:06010300ED33FD0202BF16
:100109000202E7EC5D046005E8590470030202DDB0
:100119001202A8580460F6EC4860F2EC7004FDFE87
:10012900FF22C860DB2481C85009C39860025006C9
:100139000202E49850CAF582E9294B4A7005AB825C
:100149000202D375F0007C1A7880C3EF9BEE9AED1A
:1001590099400DC3EF9BFFEE9AFEED99FDE842F041
:10016900DC23ACF0D0E0FFD0E0FED0E0FDAB822094
:10017900E7101BEB60BAEC2CFCEF33FFEE33FEED1E
:1001890033FD0202BFE803F830E705C0F075F0005F
:10019900EF2FFFEE33FEED33FD40B830E7C280AA02
:1001A90074F8CC6480CCC86480C8F58204604FC3FD
:1001B900EB9FF5F0EA9E42F0E99D42F0E89C45F09C
:1001C900603C501DE5825FFFE582D313CB5BCBF426
:1001D9002B5582FB50280ABA002409B9002008804F
:1001E9001DE5825BFBE582D313CF5FCFF4C3132FE9
:1001F9005582FF50090EBE00050DBD00010CC3EB71
:100209009FF5F0EA9E42F0E99D42F0E89C45F060D6
:0902190007CC4820E701B3EC22F8
:10022200ED33EC33600A047003BD8004ECB2E7FCEA
:0102320022A9
:1002330075F020800E75F010800575F0087D007E46
:10024300007F003392D530D503120454EC334010B1
:10025300EF33FFEE33FEED33FDEC33FCD5F0ED224F
:0E026300E5F0247EA2D513CC92E7CDCEFF228B
:10027100EDD2E7CD33EC3392D524814006E4FFFE85
:10028100FDFC22FCE4CFCECDCC24E0501174FF80E4
:10029100EDC3CC13CCCD13CDCE13CECF13CF047081
:0702A100F030D5DE02045429
:1002A800E9D2E7C933E833F892D5EDD2E7CD33EC9C
:0702B80033FC5002B2D52215
:1002BF00EC30E7100FBF000C0EBE00080DBD0004A0
:1002CF000BEB6014A2D5EB13FCED92E7FD2274FF4C
:1002DF00FCFDFEFF22E480F8A2D574FF13FC7D80A5
:0302EF00E480EFB9
:0300000002069D58
:0C069D00787FE4F6D8FD7581280206E4A1
:1002F200BB010CE58229F582E5833AF583E02250C1
:1003020006E92582F8E622BBFE06E92582F8E2220A
:0D031200E58229F582E5833AF583E4932224
:10031F00EF8DF0A4A8F0CF8CF0A428CE8DF0A42EF2
:02032F00FE22AC
:10033100BC000BBE0029EF8DF084FFADF022E4CCB0
:10034100F875F008EF2FFFEE33FEEC33FCEE9DEC79
:10035100984005FCEE9DFE0FD5F0E9E4CEFD22EDBF
:10036100F8F5F0EE8420D21CFEADF075F008EF2F09
:10037100FFED33FD4007985006D5F0F222C398FDFA
:050381000FD5F0EA2297
:1003860075F008758200EF2FFFEE33FECD33CDCC2E
:1003960033CCC58233C5829BED9AEC99E5829840B1
:1003A6000CF582EE9BFEED9AFDEC99FC0FD5F0D68E
:1003B600E4CEFBE4CDFAE4CCF9A88222B800C1B9B8
:1003C6000059BA002DEC8BF084CFCECDFCE5F0CBF6
:1003D600F97818EF2FFFEE33FEED33FDEC33FCEB2F
:1003E60033FB10D703994004EB99FB0FD8E5E4F9EA
:1003F600FA227818EF2FFFEE33FEED33FDEC33FCD7
:10040600C933C910D7059BE99A4007EC9BFCE99ACA
:10041600F90FD8E0E4C9FAE4CCFB2275F010EF2F0F
:10042600FFEE33FEED33FDCC33CCC833C810D7070F
:100436009BEC9AE899400AED9BFDEC9AFCE899F84A
:0E0446000FD5F0DAE4CDFBE4CCFAE4C8F922DD
:0E045400C3E49FFFE49EFEE49DFDE49CFC22B9
:1006A900020462E493A3F8E493A34003F68001F201
:1006B90008DFF48029E493A3F85407240CC8C33352
:1006C900C4540F4420C8834004F456800146F6DF21
:1006D900E4800B0102040810204080900AEBE47EBC
:1006E900019360BCA3FF543F30E509541FFEE49316
:1006F900A360010ECF54C025E060A840B8E493A3DD
:10070900FAE493A3F8E493A3C8C582C8CAC583CA07
:10071900F0A3C8C582C8CAC583CADFE9DEE780BEBF
:010AF1000004
:00000001FF
