:10061E0050617373776F72643A004F4B2000202045
:06062E00200045525200BD
:10020A001206347BFF7A06791E7D017F0112059F53
:10021A00750C04AB25AA247D017F0212057B12000E
:10022A00038F23E52360F7D3940A74809480502DBA
:10023A00C3E5229404748094805020AE24AF257CB8
:10024A00007D0A1203178E248F25E52375F00A8490
:10025A00E5F02525F525E43524F5240522750C0459
:10026A00AB25AA247D017F0212057BE523640B706E
:10027A0037E525B42925E524B409207BFF7A0679D8
:10028A00287D0E7F0112059FE4F522F524F5257BD2
:10029A00FF7A06792C7D017F02800A7BFF7A067934
:1002AA00307D0E7F0112059FE523640C7021F52233
:1002BA00F524F525750C04AB25AA247D017F0212CD
:1002CA00057B7BFF7A06792C7D0E7F0112059F75CF
:1002DA000C04AB25AA247D017F0212057B020228A9
:03066B0001260164
:10042A00EF6003752601E526603230B10930B00667
:10043A0030B20320B3267F0A7E007D007C001205BD
:10044A00C2E4F52620B1037F012220B0037F0222F5
:10045A0020B2037F032220B3127F042230B10C3072
:0D046A00B00930B20630B3037526017F00E3
:010477002262
:06064800C2A58F80D2A7BD
:08064E007F027EEFDEFEDFFCFF
:010656002281
:0A065700C2A6120648C2A702064E12
:1005E200CFCDCFCECCCE1203297C007D0A120329B7
:0405F200ED2430FFC5
:0A05F600D2A6120648C2A702064E64
:10060000AE07EEFB7A0064017004ED148009EB6420
:0E061000024A7009ED243F4480FF1206572273
:100634007F381206577F0C1206577F061206577F23
:040644000102065752
:0A066100AC03120600AF040205F618
:06059F008B088A09890A9D
:1005A500120600E4FDAB08AA09A90A8D827583002D
:0C05B5001202EAFF60061205F60D80E954
:0105C1002217
:0A054A00EF24FFFDEE34FFFC7F0AF2
:080554008E0D8F0E8C0F8D102F
:10055C007F017E00E4FBEBC39510E50F6480F8741B
:0E056C008098500AAC0DAD0E1203170B80E8FC
:01057A00225E
:04057B008A0A8B0B52
:10057F00120600AA0CEAFF7E00D3940074809480C8
:0F058F00400D12054AAC0AAD0B1205E21A80E6C8
:01059E00223A
:0404C3008B828A831B
:1004C700120600C3E58364809480400D7F2B1205DC
:1004D700F685831685821780107F2D1205F6C3E4F3
:1004E7009582F517E49583F516AA15EAFF7E00D3E2
:1004F700940074809480400D12054AAC16AD171213
:0505070005E21A80E688
:01050C0022CC
:040478008A1A8B1B36
:10047C00120600AA1CEAD39400748094804037EAD8
:10048C0024FFFDE434FFFC7F107E00120554AC1AEF
:10049C00AD1BCFCDCFCECCCE120329EF540FFEC364
:1004AC00940A74809480EE5004243080022437FF28
:0604BC001205F61A80BFD4
:0104C2002217
:04050D008A1F8B2096
:10051100120600AA21EAFF7E00D394007480948021
:100521004026EF24FFFDEE34FFFC7F02120554ACA0
:100531001FAD20CFCDCFCECCCE120329EF54012455
:0805410030FF1205F61A80CD0F
:01054900228F
:10000300E4F5087590FFC2932097197F14FEFDFC59
:100013001205C23097FD7F147E007D007C0012051F
:10002300C275080120961C7F147E007D007C00129F
:1000330005C23096FD7F147E007D007C001205C250
:1000430075080520951C7F147E007D007C00120539
:10005300C23095FD7F147E007D007C001205C275C1
:10006300080920941C7F147E007D007C001205C2C9
:100073003094FD7F147E007D007C001205C275085C
:100083000D7590FFC29220971C7F147E007D007C2B
:10009300001205C23097FD7F147E007D007C0012A4
:1000A30005C275080220961C7F147E007D007C002B
:1000B3001205C23096FD7F147E007D007C00120580
:1000C300C275080620951C7F147E007D007C0012FB
:1000D30005C23095FD7F147E007D007C001205C2B1
:1000E30075080A20941C7F147E007D007C00120595
:1000F300C23094FD7F147E007D007C001205C27522
:10010300080E7590FFC29120971C7F147E007D001E
:100113007C001205C23097FD7F147E007D007C00B9
:100123001205C275080320961C7F147E007D007C97
:10013300001205C23096FD7F147E007D007C001204
:1001430005C275080720951C7F147E007D007C0086
:100153001205C23095FD7F147E007D007C001205E0
:10016300C275080B20941C7F147E007D007C001256
:1001730005C23094FD7F147E007D007C001205C211
:1001830075080F7590FFC29020971C7F147E007D29
:10019300007C001205C23097FD7F147E007D007C39
:1001A300001205C275080420961C7F147E007D0092
:1001B3007C001205C23096FD7F147E007D007C001A
:1001C3001205C275080820951C7F147E007D007CF3
:1001D300001205C23095FD7F147E007D007C001265
:1001E30005C275080C20941C7F147E007D007C00E2
:1001F3001205C23094FD7F147E007D007C00120541
:06020300C2750810AF08EF
:0102090022D2
:0805C2008F0C8E0B8D0A8C09D1
:1005CA00780974FF120380EC4D4E4F600A7F027E59
:0705DA00EFDEFEDFFC80E90B
:0105E10022F7
:0300000002039E5A
:0C039E00787FE4F6D8FD7581260203E5A7
:1002EA00BB010CE58229F582E5833AF583E02250C9
:1002FA0006E92582F8E622BBFE06E92582F8E22213
:0D030A00E58229F582E5833AF583E493222C
:10031700EF8DF0A4A8F0CF8CF0A428CE8DF0A42EFA
:02032700FE22B4
:10032900BC000BBE0029EF8DF084FFADF022E4CCB8
:10033900F875F008EF2FFFEE33FEEC33FCEE9DEC81
:10034900984005FCEE9DFE0FD5F0E9E4CEFD22EDC7
:10035900F8F5F0EE8420D21CFEADF075F008EF2F11
:10036900FFED33FD4007985006D5F0F222C398FD02
:050379000FD5F0EA229F
:10037E007401FF3395E0FEFDFC080808E6CF2FF66A
:10038E0018E6CE3EF618E6CD3DF618E6CC3CF62243
:1003AA0002020AE493A3F8E493A34003F68001F25D
:1003BA0008DFF48029E493A3F85407240CC8C33354
:1003CA00C4540F4420C8834004F456800146F6DF23
:1003DA00E4800B010204081020408090066BE47E42
:1003EA00019360BCA3FF543F30E509541FFEE49318
:1003FA00A360010ECF54C025E060A840B8E493A3DF
:10040A00FAE493A3F8E493A3C8C582C8CAC583CA09
:10041A00F0A3C8C582C8CAC583CADFE9DEE780BEC1
:01066E00008B
:00000001FF
