:05038C0012032380FEB6
:03036E0001280162
:1001E300EF6003752801E528602C30B10930B006B3
:1001F30030B20320B3207F0A12034EE4F52820B166
:10020300037F012220B0037F022220B2037F032257
:1002130020B3127F042230B10C30B00930B2063063
:07022300B3037528017F0001
:01022A0022B1
:06035F00C2A58F80D2A7A9
:080365007F027EEFDEFEDFFCEB
:01036D00226D
:0A037800C2A612035FC2A7020365CC
:1002E700CFCDCFCECCCE12006D7C007D0A12006D33
:0402F700ED2430FFC3
:0A02FB00D2A612035FC2A70203653A
:10030500AE07EEFB7A0064017004ED148009EB641E
:0E031500024A7009ED243F4480FF1203782253
:10033A007F381203787F0C1203787F061203787FC6
:04034A000102037831
:0A038200AC03120305AF040202FBF6
:0602C4008B228A2389242D
:1002CA00120305E4FDAB22AA23A9248D82758300BB
:0C02DA0012002EFF60061202FB0D80E9EE
:0102E60022F5
:0A026800EF24FFFDEE34FFFC7F0AD7
:080272008E1E8F1F8C208D21D0
:10027A007F017E00E4FBEBC39521E5206480F874DE
:0E028A008098500AAC1EAD1F12005B0B80E87E
:010298002243
:040003008A118B12C1
:10000700120305AA13EAFF7E00D39400748094803C
:0F001700400D120268AC11AD121202E71A80E61A
:0100260022B7
:040199008B828A8348
:10019D00120305C3E58364809480400D7F2B12020A
:1001AD00FB85830D85820E80107F2D1202FBC3E42B
:1001BD009582F50EE49583F50DAA0CEAFF7E00D32A
:1001CD00940074809480400D120268AC0DAD0E1237
:0501DD0002E71A80E6B4
:0101E20022FA
:04014E008A168B176B
:10015200120305AA18EAD39400748094804037EA07
:1001620024FFFDE434FFFC7F107E00120272AC1605
:10017200AD17CFCDCFCECCCE12006DEF540FFEC354
:10018200940A74809480EE5004243080022437FF55
:060192001202FB1A80BFFF
:010198002244
:04022B008A1B8B1C83
:10022F00120305AA1DEAFF7E00D394007480948008
:10023F004026EF24FFFDEE34FFFC7F02120272AC6A
:10024F001BAD1CCFCDCFCECCCE12006DEF54012401
:08025F0030FF1202FB1A80CDF2
:010267002274
:10034E00AE071FEE600A7E027DEFDDFEDEFC80F062
:01035E00227C
:0603710001260001253207
:10032300E4F5C975C804F5CC75CD4CF5CA75CB4C4D
:07033300D2AFD2ADD2CA2205
:03002B0002029935
:10029900C0E0C0F0C0D00526E52675F0648485F07D
:1002A90026E526D395254007D29075A00F8005C273
:0B02B9009075A0F0D0D0D0F0D0E03263
:030000000200C239
:0C00C200787FE4F6D8FD75812802010962
:10002E00BB010CE58229F582E5833AF583E0225087
:10003E0006E92582F8E622BBFE06E92582F8E222D1
:0D004E00E58229F582E5833AF583E49322EB
:10005B00EF8DF0A4A8F0CF8CF0A428CE8DF0A42EB9
:02006B00FE2273
:10006D00BC000BBE0029EF8DF084FFADF022E4CC77
:10007D00F875F008EF2FFFEE33FEEC33FCEE9DEC40
:10008D00984005FCEE9DFE0FD5F0E9E4CEFD22ED86
:10009D00F8F5F0EE8420D21CFEADF075F008EF2FD0
:1000AD00FFED33FD4007985006D5F0F222C398FDC1
:0500BD000FD5F0EA225E
:1000CE0002038CE493A3F8E493A34003F68001F2B9
:1000DE0008DFF48029E493A3F85407240CC8C33333
:1000EE00C4540F4420C8834004F456800146F6DF02
:1000FE00E4800B010204081020408090036EE47E21
:10010E00019360BCA3FF543F30E509541FFEE493F6
:10011E00A360010ECF54C025E060A840B8E493A3BD
:10012E00FAE493A3F8E493A3C8C582C8CAC583CAE8
:10013E00F0A3C8C582C8CAC583CADFE9DEE780BEA0
:010377000085
:00000001FF
