:100A8300543A0054483A00544C3A004F563A4800FE
:0A0A93004F563A4C002020202000AE
:03000300010E00EB
:10046D00E4FF1208B18F0D7F011208B18F08AF0D97
:10047D00EF3395E0FED3EF947DEE648094805017BA
:10048D00AF08EF3395E0FEC3EF94C9EE6480947F1F
:10049D004005E50DB50806750D1975080F120AB45E
:1004AD007BFF7A0A79837D017F011209CA7BFF7A6E
:1004BD000A79867D017F021209CA7BFF7A0A798A41
:1004CD007D097F021209CAE50DFB3395E0FA751718
:1004DD00037D047F0212077FE508FB3395E0FA7573
:1004ED0017037D0C7F0212077F120AEA7FE8120BB9
:1004FD00037F011207C98F0E120AEA1208E18F0C51
:10050D008E0B8D0A8C09E4FFFEFDFCAB0CAA0BA92A
:10051D000AA8091201B4501E7B2D7D037F01120B19
:10052D0019AF0CAE0BAD0AAC0912022D8F128E1144
:10053D008D108C0F80157B2B7D037F01120B198580
:10054D000C12850B11850A1085090FAF12AE11AD76
:10055D0010AC0F12027CAB07AA067517037D047F42
:10056D00011209827B2E7D077F01120B197F007E00
:10057D00407D1C7C46AB12AA11A910A80F12000ECB
:10058D0012027CE47B107A27F9F81203CD7517045B
:10059D007D087F01120982E50E7003020658FF7E69
:1005AD000064017017050DAD0DED3395E0FCD3ED35
:1005BD00947DEC648094804003750D7DEF64024E54
:1005CD007011150DD3E5086480F8E50D6480985021
:1005DD0002050DE50E640370110508C3E50D648079
:1005ED00F8E50864809840021508E50E640470175C
:1005FD001508AF08EF3395E0FEC3EF94C9EE6480A4
:10060D00947F50037508C9E50DFB3395E0FA751716
:10061D00037D047F0212077FE508FB3395E0FA7531
:10062D0017037D0C7F0212077FE50DFD3395E0FC6E
:10063D00E4FF1209A67F05120B03E508FD3395E0D3
:10064D00FC7F011209A67F05120B03AC0DEC120203
:10065D0048AB0CAA0BA90AA8091201B4600A4008FC
:10066D007BFF7A0A798E8019AC08EC120248AB0C2C
:10067D00AA0BA90AA8091201B450107BFF7A0A79B6
:10068D00937D0D7F011209CA0204FE7BFF7A0A7960
:0B069D00987D0D7F011209CA0204FEC7
:03000600012A01CB
:1007C900EF6003752A01E52A602C30B10930B006C3
:1007D90030B20320B3207F0A120B03E4F52A20B1BB
:1007E900037F012220B0037F022220B2037F03226C
:1007F90020B3127F042230B10C30B00930B2063078
:07080900B303752A017F0013
:0108100022C5
:060ADB00C2A58F80D2A726
:080AE1007F027EEFDEFEDFFC68
:010AE90022EA
:0A0B0F00C2A6120ADBC2A7020AE127
:100A0F00CFCDCFCECCCE12033C7C007D0A12033C5F
:040A1F00ED2430FF93
:0A0A2300D2A6120ADBC2A7020AE104
:100A2D00AE07EEFB7A0064017004ED148009EB64EF
:0E0A3D00024A7009ED243F4480FF120B0F2285
:100AB4007F38120B0F7F0C120B0F7F06120B0F7F68
:040AC40001020B0F11
:0A0B1900AC03120A2DAF04020A23F8
:0609CA008B138A1489154D
:1009D000120A2DE4FDAB13AA14A9158D82758300AC
:0C09E0001202FDFF6006120A230D80E9E0
:0109EC0022E8
:0A088000EF24FFFDEE34FFFC7F0AB9
:08088A008E1A8F1B8C1C8D1DC2
:100892007F017E00E4FBEBC3951DE51C6480F874C8
:0E08A2008098500AAC1AAD1B12032A0B80E896
:0108B0002225
:040982008A158B1631
:10098600120A2DAA17EAFF7E00D394007480948081
:0F099600400D120880AC15AD16120A0F1A80E63C
:0109A500222F
:04077F008B828A835C
:10078300120A2DC3E58364809480400D7F2B120AE7
:100793002385831885821980107F2D120A23C3E4D1
:1007A3009582F519E49583F518AA17EAFF7E00D31D
:1007B300940074809480400D120880AC18AD191217
:0507C3000A0F1A80E698
:0107C800220E
:040734008A208B216B
:10073800120A2DAA22EAD39400748094804037EAE2
:1007480024FFFDE434FFFC7F107E0012088AAC20F1
:10075800AD21CFCDCFCECCCE12033CEF540FFEC38C
:10076800940A74809480EE5004243080022437FF69
:06077800120A231A80BFE3
:01077E002258
:040811008A258B2683
:10081500120A2DAA27EAFF7E00D3940074809480E3
:100825004026EF24FFFDEE34FFFC7F0212088AAC60
:1008350025AD26CFCDCFCECCCE12033CEF5401242F
:0808450030FF120A231A80CDD6
:01084D002288
:090B2D00D2A0D2A1C2A0C2A122F3
:070B3600C2A0D2A1D2A0224F
:02084E00AD07F4
:10085000E4FBEBC394087480948050237E00748082
:10086000A803088006CEA2E713CE13D8F8FFEDF553
:0F08700082EF558224FF92A0D2A1C2A10B80D3A8
:01087F002256
:10093500E4FFD2A0FEEEC39408748094805017D2D1
:10094500A130A00DA8067480088002C313D8FC420C
:0609550007C2A10E80DFC5
:01095B002279
:0A0B2300EF24FF92A0D2A1C2A1228C
:0B0AF700D2A0D2A1A2A0E433FFC2A154
:010B020022D0
:0B0B0300007E027DC7DDFEDEFCDFF59A
:010B0E0022C4
:100A4B00D2B7C2B7007FF7DFFED2B7007F1DDFFE44
:0C0A5B00A2B7E433FE007FF7DFFEAF0619
:010A6700226C
:100AC800C2B77E04DEFEEF24FF92B7007E16DEFE7C
:020AD800D2B793
:010ADA0022F9
:100A6800D2B7C2B77F02DFFED2B77F02DFFEA2B7DE
:0A0A7800E433FE007F16DFFEAF0638
:010A82002251
:0209ED00AD0754
:1009EF00E4FCECC39408748094805013A804740141
:0F09FF00088002C333D8FC5DFF120AC80C80E3E6
:010A0E0022C5
:10095C00E4FDFCECC39408748094805016120A6871
:10096C00EF600DA8047401088002C333D8FC420563
:05097C000C80E0AF0556
:010981002253
:0D0AEA00120A4B7FCC1209ED7F440209ED8A
:1008E100120A4B7FCC1209ED7FBE1209ED12095C91
:1008F1008F1312095CEFFEE513FFFDAC06EC12024B
:0B09010043E4FBFA7980784102011703
:1009A6008F138C148D15120B2D7FA012084E120A70
:1009B600F7AF1312084E120AF7AF1512084E120AB5
:0409C600F7020B36F3
:0208B1008F13A3
:1008B300120B2D7FA012084E120AF7AF1312084E27
:1008C300120AF7120B2D7FA112084E120AF7120912
:0D08D300358F147F01120B23120B36AF146A
:0108E00022F5
:100A9D005389F0438901C28DD28C758CFC758A17F0
:070AAD00D2AFD2A9C2B922A9
:03000B0002090CDB
:10090C00C0E0C0D0758CFC758A170529E5297002EA
:10091C000528C394E8E52894034009752800752937
:09092C000063A0FFD0D0D0E0323E
:10000E00EC4D6011E8497017ED33EC3304600DE4EC
:10001E00FCFFFEFD22E933E8330470F80202E81219
:10002E0002B358046009E4CC24815006285009021A
:10003E0002F22840030202EFC0E0EB4A7044B9809E
:10004E0006D0E0FB0202DEEF4E701CBD8008EBFF17
:10005E00EAFEE9FD80EBE98DF0A4FEE5F00200F783
:10006E00E9CDF9EAFEEBFFEF89F0A4FCE5F0CE89CD
:10007E00F0A42EFFE435F0CD89F0A42DFEE435F08A
:10008E008067EF4E7005BD80D780C3EF8BF0A4ACB8
:10009E00F0EE8BF0A42CFCE435F0F8EF8AF0A42CF3
:1000AE00E5F038FCE433CB8DF0A42CFCE5F03BF806
:1000BE00EE8AF0A42CFCE5F038F8E433CF89F0A4F6
:1000CE002CFCE5F038CF3400CE89F0A42FFFE5F0FC
:1000DE003EFEE433C98DF0A42EFEE5F039CD8AF054
:1000EE00A42FFFE5F03EFEE43DFD33D0E0FB5007CC
:1000FE000BBB000F0202F2EC2CFCEF33FFEE33FED3
:06010E00ED33FD0202CA00
:100114000202F2EC5D046005E8590470030202E88F
:100124001202B3580460F6EC4860F2EC7004FDFE71
:10013400FF22C860DB2481C85009C39860025006BE
:100144000202EF9850CAF582E9294B4A7005AB8246
:100154000202DE75F0007C1A7880C3EF9BEE9AED04
:1001640099400DC3EF9BFFEE9AFEED99FDE842F036
:10017400DC23ACF0D0E0FFD0E0FED0E0FDAB822089
:10018400E7101BEB60BAEC2CFCEF33FFEE33FEED13
:1001940033FD0202CAE803F830E705C0F075F00049
:1001A400EF2FFFEE33FEED33FD40B830E7C280AAF7
:1001B40074F8CC6480CCC86480C8F58204604FC3F2
:1001C400EB9FF5F0EA9E42F0E99D42F0E89C45F091
:1001D400603C501DE5825FFFE582D313CB5BCBF41B
:1001E4002B5582FB50280ABA002409B90020088044
:1001F4001DE5825BFBE582D313CF5FCFF4C3132FDE
:100204005582FF50090EBE00050DBD00010CC3EB65
:100214009FF5F0EA9E42F0E99D42F0E89C45F060CB
:0902240007CC4820E701B3EC22ED
:10022D00ED33EC33600A047003BD8004ECB2E7FCDF
:01023D00229E
:10023E0075F020800E75F010800575F0087D007E3B
:10024E00007F003392D530D50312045FEC3340109B
:10025E00EF33FFEE33FEED33FDEC33FCD5F0ED2244
:0E026E00E5F0247EA2D513CC92E7CDCEFF2280
:10027C00EDD2E7CD33EC3392D524814006E4FFFE7A
:10028C00FDFC22FCE4CFCECDCC24E0501174FF80D9
:10029C00EDC3CC13CCCD13CDCE13CECF13CF047076
:0702AC00F030D5DE02045F13
:1002B300E9D2E7C933E833F892D5EDD2E7CD33EC91
:0702C30033FC5002B2D5220A
:1002CA00EC30E7100FBF000C0EBE00080DBD000495
:1002DA000BEB6014A2D5EB13FCED92E7FD2274FF41
:1002EA00FCFDFEFF22E480F8A2D574FF13FC7D809A
:0302FA00E480EFAE
:030000000206A84D
:0C06A800787FE4F6D8FD75812A0206EF89
:1002FD00BB010CE58229F582E5833AF583E02250B6
:10030D0006E92582F8E622BBFE06E92582F8E222FF
:0D031D00E58229F582E5833AF583E4932219
:10032A00EF8DF0A4A8F0CF8CF0A428CE8DF0A42EE7
:02033A00FE22A1
:10033C00BC000BBE0029EF8DF084FFADF022E4CCA5
:10034C00F875F008EF2FFFEE33FEEC33FCEE9DEC6E
:10035C00984005FCEE9DFE0FD5F0E9E4CEFD22EDB4
:10036C00F8F5F0EE8420D21CFEADF075F008EF2FFE
:10037C00FFED33FD4007985006D5F0F222C398FDEF
:05038C000FD5F0EA228C
:1003910075F008758200EF2FFFEE33FECD33CDCC23
:1003A10033CCC58233C5829BED9AEC99E5829840A6
:1003B1000CF582EE9BFEED9AFDEC99FC0FD5F0D683
:1003C100E4CEFBE4CDFAE4CCF9A88222B800C1B9AD
:1003D1000059BA002DEC8BF084CFCECDFCE5F0CBEB
:1003E100F97818EF2FFFEE33FEED33FDEC33FCEB24
:1003F10033FB10D703994004EB99FB0FD8E5E4F9DF
:10040100FA227818EF2FFFEE33FEED33FDEC33FCCB
:10041100C933C910D7059BE99A4007EC9BFCE99ABF
:10042100F90FD8E0E4C9FAE4CCFB2275F010EF2F04
:10043100FFEE33FEED33FDCC33CCC833C810D70704
:100441009BEC9AE899400AED9BFDEC9AFCE899F83F
:0E0451000FD5F0DAE4CDFBE4CCFAE4C8F922D2
:0E045F00C3E49FFFE49EFEE49DFDE49CFC22AE
:1006B40002046DE493A3F8E493A34003F68001F2EB
:1006C40008DFF48029E493A3F85407240CC8C33347
:1006D400C4540F4420C8834004F456800146F6DF16
:1006E400E4800B0102040810204080900003E47EA3
:1006F400019360BCA3FF543F30E509541FFEE4930B
:10070400A360010ECF54C025E060A840B8E493A3D1
:10071400FAE493A3F8E493A3C8C582C8CAC583CAFC
:10072400F0A3C8C582C8CAC583CADFE9DEE780BEB4
:0100090000F6
:00000001FF
