:10040F001206617FD07E077D007C001205D4120397
:10041F00A47515008F16751B10AB16AA157D017FDD
:10042F000212056B7FD07E077D007C001205D48001
:01043F00DDDF
:0306E400013601DB
:10028400EF6003753601E536603230B10930B006EF
:1002940030B20320B3267F0A7E007D007C00120565
:1002A400D4E4F53620B1037F012220B0037F02227B
:1002B40020B2037F032220B3127F042230B10C301A
:0D02C400B00930B20630B3037536017F007B
:0102D100220A
:06068800C2A58F80D2A77D
:08068E007F027EEFDEFEDFFCBF
:010696002241
:0A06BD00C2A6120688C2A702068E2C
:1005F300CFCDCFCECCCE1201757C007D0A12017512
:04060300ED2430FFB3
:0A060700D2A6120688C2A702068ED2
:10061100AE07EEFB7A0064017004ED148009EB640F
:0E062100024A7009ED243F4480FF1206BD22FC
:100661007F381206BD7F0C1206BD7F061206BD7FC4
:04067100010206BDBF
:0A06C700AC03120611AF040206078F
:06058F008B318A32893332
:10059500120611E4FDAB31AA32A9338D82758300B1
:0C05A500120136FF60061206070D80E907
:0105B1002227
:0A044000EF24FFFDEE34FFFC7F0AFD
:08044A008E1C8F1D8C1E8D1FFE
:100452007F017E00E4FBEBC3951FE51E6480F87408
:0E0462008098500AAC1CAD1D1201630B80E89F
:010470002269
:04056B008A198B1A44
:10056F00120611AA1BEAFF7E00D3940074809480B8
:0F057F00400D120440AC19AD1A1205F31A80E6B4
:01058E00224A
:04031D008B828A83C2
:10032100120611C3E58364809480400D7F2B120671
:100331000785832585822680107F2D120607C3E459
:100341009582F526E49583F525AA24EAFF7E00D35C
:10035100940074809480400D120440AC25AD2612A7
:0503610005F31A80E61F
:010366002274
:0402D2008A298B2AC0
:1002D600120611AA2BEAD39400748094804037EA60
:1002E60024FFFDE434FFFC7F107E0012044AAC2993
:1002F600AD2ACFCDCFCECCCE120175EF540FFEC3B3
:10030600940A74809480EE5004243080022437FFCF
:060316001206071A80BF69
:01031C0022BE
:040367008A2E8B2F20
:10036B00120611AA30EAFF7E00D3940074809480A9
:10037B004026EF24FFFDEE34FFFC7F0212044AAC53
:10038B002EAD2FCFCDCFCECCCE120175EF54012495
:08039B0030FF1206071A80CDA5
:0103A3002237
:10064A005389F0438901C28DD28C758CFC758A1747
:07065A00D2AFD2A9C2B92200
:03000B000204F5F7
:1004F500C0E0C0D0758CFC758A170535E5357002EE
:100505000534C394E8E53494034009753400753522
:090515000063A0FFD0D0D0E03259
:0906DB00D2A0D2A1C2A0C2A1224A
:07000300C2A0D2A1D2A0228D
:0203DD00AD076A
:1003DF00E4FBEBC394087480948050237E007480F8
:1003EF00A803088006CEA2E713CE13D8F8FFEDF5C9
:0F03FF0082EF558224FF92A0D2A1C2A10B80D31E
:01040E0022CB
:10051E00E4FFD2A0FEEEC39408748094805017D2EC
:10052E00A130A00DA8067480088002C313D8FC4227
:06053E0007C2A10E80DFE0
:010544002294
:0A06D100EF24FF92A0D2A1C2A122E3
:0B06B100D2A0D2A1A2A0E433FFC2A19E
:0106BC00221B
:0805D4008F1B8E1A8D198C1883
:1005DC00007F027EC7DEFEDFFC781874FF1201DAA2
:0605EC00EC4D4E4F70EAD9
:0105F20022E6
:1003A400C2937F017E007D007C001205D4D2937F2E
:1003B40009DFFE7F12DFFEA293E433FE007F24DF19
:1003C400FEA293E433FD7F12DFFED293EE70047F2E
:0803D4000180027F00EF5DFFD4
:0103DC0022FE
:10067500C2937E04DEFEEF24FF9293007E16DEFE1B
:02068500D2930E
:010687002250
:10062F00D293C2937F02DFFED2937F02DFFEA293AB
:0A063F00E433FE007F16DFFEAF0675
:01064900228E
:0205B200AD0793
:1005B400E4FCECC39408748094805013A804748001
:0F05C400088002C313D8FC5DFF1206750C80E39C
:0105D3002205
:10047100E4FDFCFBEBC3941074809480501D1206C4
:100481002FEF60147E80E4A803088005CEC313CE4D
:0D04910013D8F94205EE42040B80D9AF05E7
:01049E00223B
:10054500E4FDFCECC3940874809480501612062FC9
:10055500EF600DA8047480088002C313D8FC42051F
:050565000C80E0AF0571
:01056A00226E
:0D0697001203A47FCC1205B27F440205B20D
:10049F001203A47FCC1205B27FBE1205B21205451E
:1004AF008F37120545EFFEE537FFFDAC06EC120066
:0B04BF00B3E4FBFA79807841020011E1
:0D06A4001203A47FCC1205B27F440205B200
:1004CA001203A47FCC1205B27FBE1205B2120545F3
:1004DA008F38120545EFFEE538FFFDAC06EC120039
:0B04EA00B3E4FBFA79807841020011B6
:10000E0002012BEC5D046005E85904700302012126
:10001E001200EC580460F6EC4860F2EC7004FDFE41
:10002E00FF22C860DB2481C85009C39860025006C5
:10003E000201289850CAF582E9294B4A7005AB8215
:10004E0002011775F0007C1A7880C3EF9BEE9AEDD3
:10005E0099400DC3EF9BFFEE9AFEED99FDE842F03D
:10006E00DC23ACF0D0E0FFD0E0FED0E0FDAB822090
:10007E00E7101BEB60BAEC2CFCEF33FFEE33FEED1A
:10008E0033FD020103E803F830E705C0F075F00018
:10009E00EF2FFFEE33FEED33FD40B830E7C280AAFE
:1000AE0075F020800E75F010800575F0087D007ECD
:1000BE00007F003392D530D5031201CAEC334010C5
:1000CE00EF33FFEE33FEED33FDEC33FCD5F0ED22D6
:0E00DE00E5F0247EA2D513CC92E7CDCEFF2212
:1000EC00E9D2E7C933E833F892D5EDD2E7CD33EC5A
:0700FC0033FC5002B2D522D3
:10010300EC30E7100FBF000C0EBE00080DBD00045D
:100113000BEB6014A2D5EB13FCED92E7FD2274FF09
:10012300FCFDFEFF22E480F8A2D574FF13FC7D8062
:03013300E480EF76
:030000000201F802
:0C01F800787FE4F6D8FD75813802023FE4
:10013600BB010CE58229F582E5833AF583E022507E
:1001460006E92582F8E622BBFE06E92582F8E222C8
:0D015600E58229F582E5833AF583E49322E2
:10016300EF8DF0A4A8F0CF8CF0A428CE8DF0A42EB0
:02017300FE226A
:10017500BC000BBE0029EF8DF084FFADF022E4CC6E
:10018500F875F008EF2FFFEE33FEEC33FCEE9DEC37
:10019500984005FCEE9DFE0FD5F0E9E4CEFD22ED7D
:1001A500F8F5F0EE8420D21CFEADF075F008EF2FC7
:1001B500FFED33FD4007985006D5F0F222C398FDB8
:0501C5000FD5F0EA2255
:0E01CA00C3E49FFFE49EFEE49DFDE49CFC2246
:1001D8007401FF3395E0FEFDFC080808E62FFFF6E2
:1001E80018E63EFEF618E63DFDF618E63CFCF6225B
:1002040002040FE493A3F8E493A34003F68001F2FD
:1002140008DFF48029E493A3F85407240CC8C333FB
:10022400C4540F4420C8834004F456800146F6DFCA
:10023400E4800B01020408102040809006E4E47E70
:10024400019360BCA3FF543F30E509541FFEE493BF
:10025400A360010ECF54C025E060A840B8E493A386
:10026400FAE493A3F8E493A3C8C582C8CAC583CAB1
:10027400F0A3C8C582C8CAC583CADFE9DEE780BE69
:0106E7000012
:00000001FF
