:0A0A1700543A00483A002A0020007B
:060A2100011701010E00A7
:100003001209D77FD07E077D007C0012097C7BFF1D
:100013007A0A79177D017F011209597BFF7A0A79E0
:100023001A7D017F02120959E4FF1208948F1C7F85
:10003300011208948F137F021208948F087F031212
:1000430008948F16EF3395E0FED3EF9450EE64805F
:1000530094805017AF08EF3395E0FEC3EF94ECEEB6
:100063006480947F4005E516B50806751619750872
:100073000FAF13EF3395E0FED3EF9464EE648094F7
:10008300805012AF1CEF3395E0C364809480400529
:10009300E513B51C0675134B751C46E508FB339534
:1000A300E0FA7521027D0A7F0112072BE516FB3367
:1000B30095E0FA7521027D0E7F0112072BE51CFBEB
:1000C3003395E0FA7521027D0A7F0212072BE513AF
:1000D300FB3395E0FA7521027D0E7F0212072B7F19
:1000E3002C7E017D007C0012097C7F011206928F19
:1000F3000C1207F6EF60331208EB8F091208EB8F2F
:100103000A1208EB8F0B1208EB8F0D1208EB8F17F7
:10011300E509F511E50AF512E50BF514E50DF515FD
:10012300E509250A250B250DF50EE50E6517600378
:10013300020209AE14AF15FCFD7BFF7AFFF9F8123A
:100143000775EC4D4E4F601CE514547FFEC3E495D8
:1001530015FFE49EFE3395E08F1B8E1AF519F518F3
:100163007B2D8013E514547FFE3395E085151B8E9C
:100173001AF519F5187B2B7D037F01120A35E51457
:10018300547FF50F851510FEAF107C007D0A120415
:10019300ADAA06AB077521027D047F011209117B0D
:1001A3002E7D067F01120A35AE0FAF107C007D0A4B
:1001B3001204ADAA04AB057521017D077F01120965
:1001C300117B437D087F01120A35AE11AF127C000B
:1001D3007D0A1204ADAA06AB077521037D037F02D6
:1001E3001209117B2E7D067F02120A357A00E51271
:1001F300540AFB7521017D077F021209117B257DBE
:10020300087F02120A35E50C7003020382FF7E00A9
:1002130064017012151CAD1CED3395E0C36480942A
:10022300805003E4F51CEF64024E7011051CC3E516
:10023300136480F8E51C6480984002151CE50C6487
:100243000370111513C3E5136480F8E51C648098EB
:1002530040020513AF0C7E00EF640470170513AD65
:1002630013ED3395E0FCD3ED9464EC64809480400B
:1002730003751364EF64054E70171508AF1CEF3355
:1002830095E0FEC3EF94ECEE6480947F5003751CFD
:10029300ECE50C640670110508C3E5166480F8E507
:1002A3000864809840021508AF0C7E00EF64077065
:1002B300111516C3E5136480F8E51C6480984002A9
:1002C3000516EF64084E70170516AF16EF3395E069
:1002D300FED3EF9450EE648094804003751650E58E
:1002E3001CFD3395E0FCE4FF1209357F057E007D9C
:1002F300007C0012097CE513FD3395E0FC7F0112BD
:1003030009357F057E007D007C0012097CE508FD30
:100313003395E0FC7F021209357F057E007D007C6A
:100323000012097CE516FD3395E0FC7F03120935C5
:100333007F057E007D007C0012097CE508FB339578
:10034300E0FA7521027D0A7F0112072BE516FB33C4
:1003530095E0FA7521027D0E7F0112072BE51CFB48
:100363003395E0FA7521027D0A7F0212072BE5130C
:10037300FB3395E0FA7521027D0E7F0212072BAF46
:1003830016EF3395E0FE7C007D0A12049BEE339555
:10039300E0FDFCAB1BAA1AA919A818D31205024049
:1003A300117BFF7A0A791D7D0D7F01120959C2A3C2
:1003B300804BAF08EF3395E0FE7C007D0A12049B6F
:1003C300EE3395E0FDFCAB1BAA1AA919A818C312BA
:1003D30005027BFF500F7A0A791D7D097F011209FF
:1003E30059D2A380187A0A791F7D0D7F011209590A
:1003F3007BFF7A0A791F7D097F01120959AF13EF39
:100403003395E0FE7C007D0A12049BD3E5129FE541
:10041300119E40127BFF7A0A791D7D0D7F0212091E
:1004230059D2A20200E2AF1CEF3395E0FE7C007DBF
:100433000A12049BC3E5129FE5119E50117BFF7ABC
:100443000A791D1D7F02120959C2A20200E27BFF35
:100453007A0A791F7D0D7F021209597BFF7A0A7987
:0B0463001F7D097F021209590200E210
:030A270001320198
:10069200EF6003753201E532603230B10930B006E5
:1006A20030B20320B3267F0A7E007D007C0012094F
:1006B2007CE4F53220B1037F012220B0037F0222C5
:1006C20020B2037F032220B3127F042230B10C3008
:0D06D200B00930B20630B3037532017F006D
:0106DF0022F8
:08097C008F208E1F8D1E8C1DC3
:10098400007F027EC7DEFEDFFC781D74FF12051AAD
:06099400EC4D4E4F70EA2D
:01099A00223A
:0609FC00C2A58F80D2A706
:080A02007F027EEFDEFEDFFC47
:010A0A0022C9
:0A0A2B00C2A61209FCC2A7020A02CB
:10099B00CFCDCFCECCCE1204AD7C007D0A1204ADF0
:0409AB00ED2430FF08
:0A09AF00D2A61209FCC2A7020A0238
:1009B900AE07EEFB7A0064017004ED148009EB6464
:0E09C900024A7009ED243F4480FF120A2B22DF
:1009D7007F38120A2B7F0C120A2B7F06120A2B7FF5
:0409E70001020A2BD4
:0A0A3500AC031209B9AF040209AFC7
:060959008B1D8A1E891FA0
:10095F001209B9E4FDAB1DAA1EA91F8D8275830074
:0C096F0012046EFF60061209AF0D80E953
:01097B002259
:0A086300EF24FFFDEE34FFFC7F0AD6
:08086D008E248F258C268D27B7
:100875007F017E00E4FBEBC39527E5266480F874D1
:0E0885008098500AAC24AD2512049B0B80E82D
:010893002242
:040911008A1F8B208E
:100915001209B9AA21EAFF7E00D39400748094805D
:0F092500400D120863AC1FAD2012099B1A80E62B
:0109340022A0
:04072B008B828A83B0
:10072F001209B9C3E58364809480400D7F2B1209B1
:10073F00AF85832285822380107F2D1209AFC3E4FA
:10074F009582F523E49583F522AA21EAFF7E00D353
:10075F00940074809480400D120863AC22AD231274
:05076F00099B1A80E661
:010774002262
:0406E0008A2A8B2BAC
:1006E4001209B9AA2CEAD39400748094804037EAA2
:1006F40024FFFDE434FFFC7F107E0012086DAC2A59
:10070400AD2BCFCDCFCECCCE1204ADEF540FFEC364
:10071400940A74809480EE5004243080022437FFBD
:060724001209AF1A80BFAC
:01072A0022AC
:0407B9008A2F8B30C8
:1007BD001209B9AA31EAFF7E00D3940074809480A7
:1007CD004026EF24FFFDEE34FFFC7F0212086DACD6
:1007DD002FAD30CFCDCFCECCCE1204ADEF54012402
:0807ED0030FF1209AF1A80CDA4
:0107F50022E1
:1007F600D293C2937F017E007D007C0012097CD2D9
:10080600937F09DFFE7F12DFFEA293E433FE007FB3
:1008160024DFFEA293E433FD7F12DFFED293EE7057
:0A082600047F0180027F00EF5DFFF8
:0108300022A5
:1009EB002093FD3093FD007F0DDFFEA293E433FFD8
:0109FB0022D9
:1008EB00E4FEFDEDC394087480948050161209EB5E
:1008FB00EF600DA8057480088002C313D8FC420674
:05090B000D80E0AF06C5
:0109100022C4
:100935008F1D8C1E8D1F120A497FA0120831120AC5
:100945000BAF1D120831120A0BAF1F120831120A24
:040955000B020A5235
:020894008F1DB6
:10089600120A497FA0120831120A0BAF1D12083145
:1008A600120A0B120A497FA1120831120A0B12080A
:0D08B600C48F1E7F01120A3F120A52AF1EAE
:0108C3002212
:090A4900D2A0D2A1C2A0C2A122D8
:070A5200C2A0D2A1D2A02234
:02083100AD0711
:10083300E4FBEBC394087480948050237E0074809F
:10084300A803088006CEA2E713CE13D8F8FFEDF570
:0F08530082EF558224FF92A0D2A1C2A10B80D3C5
:010862002273
:1008C400E4FFD2A0FEEEC39408748094805017D243
:1008D400A130A00DA8067480088002C313D8FC427E
:0608E40007C2A10E80DF37
:0108EA0022EB
:0A0A3F00EF24FF92A0D2A1C2A12271
:0B0A0B00D2A0D2A1A2A0E433FFC2A140
:010A160022BD
:03000000020606EF
:0C060600787FE4F6D8FD75813202064DC5
:10046E00BB010CE58229F582E5833AF583E0225043
:10047E0006E92582F8E622BBFE06E92582F8E2228D
:0D048E00E58229F582E5833AF583E49322A7
:10049B00EF8DF0A4A8F0CF8CF0A428CE8DF0A42E75
:0204AB00FE222F
:1004AD00BC000BBE0029EF8DF084FFADF022E4CC33
:1004BD00F875F008EF2FFFEE33FEEC33FCEE9DECFC
:1004CD00984005FCEE9DFE0FD5F0E9E4CEFD22ED42
:1004DD00F8F5F0EE8420D21CFEADF075F008EF2F8C
:1004ED00FFED33FD4007985006D5F0F222C398FD7D
:0504FD000FD5F0EA221A
:10077500C2D5E830E70FB2D5E4C39BFBE49AFAE4AF
:1007850099F9E498F8EC30E717B2D51207AB1205E2
:1007950074E4C39BFBE49AFAE499F9E498F88003BE
:1007A50012057430D50DE4C39FFFE49EFEE49DFD64
:0407B500E49CFC22A2
:10050200EB9FF5F0EA9E42F0E99D42F0EC6480C870
:0605120064809845F02210
:100518007401FF3395E0FEFDFC080808E62FFFF69E
:1005280018E63EFEF618E63DFDF618E63CFCF62217
:10061200020003E493A3F8E493A34003F68001F2FB
:1006220008DFF48029E493A3F85407240CC8C333E9
:10063200C4540F4420C8834004F456800146F6DFB8
:10064200E4800B0102040810204080900A21E47E1D
:10065200019360BCA3FF543F30E509541FFEE493AD
:10066200A360010ECF54C025E060A840B8E493A374
:10067200FAE493A3F8E493A3C8C582C8CAC583CA9F
:10068200F0A3C8C582C8CAC583CADFE9DEE780BE57
:010A2A0000CB
:1005380075F008758200EF2FFFEE33FECD33CDCC7A
:1005480033CCC58233C5829BED9AEC99E5829840FD
:100558000CF582EE9BFEED9AFDEC99FC0FD5F0D6DA
:10056800E4CEFBE4CDFAE4CCF9A88222B800C1B904
:100578000059BA002DEC8BF084CFCECDFCE5F0CB42
:10058800F97818EF2FFFEE33FEED33FDEC33FCEB7B
:1005980033FB10D703994004EB99FB0FD8E5E4F936
:1005A800FA227818EF2FFFEE33FEED33FDEC33FC23
:1005B800C933C910D7059BE99A4007EC9BFCE99A17
:1005C800F90FD8E0E4C9FAE4CCFB2275F010EF2F5C
:1005D800FFEE33FEED33FDCC33CCC833C810D7075C
:1005E8009BEC9AE899400AED9BFDEC9AFCE899F897
:0E05F8000FD5F0DAE4CDFBE4CCFAE4C8F9222A
:00000001FF
