:10041500E4F50FE50FFD7C007B017A00FF12000378
:0C042500E50F64087002F50F050F80E77A
:100003008C108D11EF14B40800505490001C75F03F
:1000130003A4C58325F0C5837302003402003802AC
:10002300003C02004002004402004C020054020063
:100033005CC2A4800EC2A48012C2A48016C2A48093
:100043001AD2A4C2A3C2A28016D2A4C2A3D2A280EF
:100053000ED2A4D2A3C2A28006D2A4D2A3D2A2E576
:1000630010705CE511B40A005055900074F828280C
:100073007302009202009702009C0200A10200A6F4
:100083000200AB0200B00200B50200BA0200BF7565
:10009300803F802B758006802675805B802175806C
:1000A3004F801C758066801775806D801275807D0A
:1000B300800D758007800875807F800375806FEAE7
:1000C300700DEB146007047006C2878002D2877F2D
:0E00D300017E007D007C001203B9E4F580225E
:03046800012C0163
:10022100EF6003752C01E52C603230B10930B00666
:1002310030B20320B3267F0A7E007D007C001203CA
:10024100B9E4F52C20B1037F012220B0037F022203
:1002510020B2037F032220B3127F042230B10C307D
:0D026100B00930B20630B303752C017F00E8
:01026E00226D
:0803B9008F158E148D138C12B8
:1003C100781274FF120177EC4D4E4F600A7F027E66
:0703D100EFDEFEDFFC80E916
:0103D8002202
:06044500C2A58F80D2A7C2
:08044B007F027EEFDEFEDFFC04
:010453002286
:0A045400C2A6120445C2A702044B21
:1003D900CFCDCFCECCCE1201207C007D0A120120D8
:0403E900ED2430FFD0
:0A03ED00D2A6120445C2A702044B79
:1003F700AE07EEFB7A0064017004ED148009EB642C
:0E040700024A7009ED243F4480FF1204542283
:100431007F381204547F0C1204547F061204547F37
:04044100010204545C
:0A045E00AC031203F7AF040203ED34
:060396008B298A2A892B45
:10039C001203F7E4FDAB29AA2AA92B8D82758300E1
:0C03AC001200E1FF60061203ED0D80E975
:0103B8002222
:0A034100EF24FFFDEE34FFFC7F0AFD
:08034B008E258F268C278D28DA
:100353007F017E00E4FBEBC39528E5276480F874F6
:0E0363008098500AAC25AD2612010E0B80E8E2
:010371002269
:040372008A188B1941
:100376001203F7AA1AEAFF7E00D3940074809480D1
:0F038600400D120341AC18AD191203D91A80E6CD
:010395002245
:0402BA008B828A8326
:1002BE001203F7C3E58364809480400D7F2B1203F5
:1002CE00ED85830D85820E80107F2D1203EDC3E424
:1002DE009582F50EE49583F50DAA0CEAFF7E00D308
:1002EE00940074809480400D120341AC0DAD0E123B
:0502FE0003D91A80E69F
:0103030022D7
:04026F008A1D8B1E3B
:100273001203F7AA1FEAD39400748094804037EAEC
:1002830024FFFDE434FFFC7F107E0012034BAC1D02
:10029300AD1ECFCDCFCECCCE120120EF540FFEC377
:1002A300940A74809480EE5004243080022437FF33
:0602B3001203ED1A80BFEA
:0102B9002222
:040304008A228B239B
:100308001203F7AA24EAFF7E00D394007480948035
:100318004026EF24FFFDEE34FFFC7F0212034BACB6
:1003280022AD23CFCDCFCECCCE120120EF54012465
:0803380030FF1203ED1A80CD25
:01034000229A
:0300000002019565
:0C019500787FE4F6D8FD75812C0201DCB7
:1000E100BB010CE58229F582E5833AF583E02250D4
:1000F10006E92582F8E622BBFE06E92582F8E2221E
:0D010100E58229F582E5833AF583E4932237
:10010E00EF8DF0A4A8F0CF8CF0A428CE8DF0A42E05
:02011E00FE22BF
:10012000BC000BBE0029EF8DF084FFADF022E4CCC3
:10013000F875F008EF2FFFEE33FEEC33FCEE9DEC8C
:10014000984005FCEE9DFE0FD5F0E9E4CEFD22EDD2
:10015000F8F5F0EE8420D21CFEADF075F008EF2F1C
:10016000FFED33FD4007985006D5F0F222C398FD0D
:050170000FD5F0EA22AA
:100175007401FF3395E0FEFDFC080808E6CF2FF675
:1001850018E6CE3EF618E6CD3DF618E6CC3CF6224E
:1001A100020415E493A3F8E493A34003F68001F25B
:1001B10008DFF48029E493A3F85407240CC8C3335F
:1001C100C4540F4420C8834004F456800146F6DF2E
:1001D100E4800B0102040810204080900468E47E52
:1001E100019360BCA3FF543F30E509541FFEE49323
:1001F100A360010ECF54C025E060A840B8E493A3EA
:10020100FAE493A3F8E493A3C8C582C8CAC583CA14
:10021100F0A3C8C582C8CAC583CADFE9DEE780BECC
:01046B000090
:00000001FF
