:10008F007F011200DD8F0CE50C602624FE600E143C
:10009F00600F14601424037028B2A08024C2A180C2
:1000AF0020E5A0C313F5A08018E5A025E0F5A080FA
:1000BF001030B002D2A17F147E007D007C001201AF
:0E00CF004B7F0A7E007D007C0012014B80B248
:03017000010D017D
:1000DD00EF6003750D01E50D603230B10930B006EA
:1000ED0030B20320B3267F0A7E007D007C00120112
:1000FD004BE4F50D20B1037F012220B0037F0222D6
:10010D0020B2037F032220B3127F042230B10C30C2
:0D011D00B00930B20630B303750D017F004C
:01012A0022B2
:09016600007F027EC7DEFEDFFC13
:01016F00226D
:10014B008F0B8E0A8D098C08780874FF12012DEC29
:0B015B004D4E4F600512016680EE2241
:03000000020003F8
:0C000300787FE4F6D8FD75810D02004AFC
:10012B007401FF3395E0FEFDFC080808E6CF2FF6BF
:10013B0018E6CE3EF618E6CD3DF618E6CC3CF62298
:10000F0002008FE493A3F8E493A34003F68001F278
:10001F0008DFF48029E493A3F85407240CC8C333F2
:10002F00C4540F4420C8834004F456800146F6DFC1
:10003F00E4800B0102040810204080900170E47EE0
:10004F00019360BCA3FF543F30E509541FFEE493B6
:10005F00A360010ECF54C025E060A840B8E493A37D
:10006F00FAE493A3F8E493A3C8C582C8CAC583CAA8
:10007F00F0A3C8C582C8CAC583CADFE9DEE780BE60
:01017300008B
:00000001FF
